:020000040800F2
:100000000080012021600008295F00082B5F0008A4
:100010002D5F00082F5F0008315F0008000000001E
:10002000000000000000000000000000335F000836
:10003000355F000800000000375F0008395F0008E6
:10004000716000087160000871600008716000084C
:10005000716000087160000871600008716000083C
:10006000716000087160000871600008716000082C
:10007000716000087160000871600008716000081C
:100080007160000871600008415F00080000000016
:100090000000000000000000000000007160000887
:1000A00071600008716000087160000871600008EC
:1000B00071600008716000087160000871600008DC
:1000C00071600008716000087160000871600008CC
:1000D0007160000871600008716000080000000095
:1000E0007160000871600008716000080000000085
:1000F0000000000000000000000000007160000827
:100100000000000071600008716000087160000864
:1001100000000000000000000000000000000000DF
:10012000515F00087160000871600008716000088C
:1001300071600008000000000000000000000000E6
:1001400000000000000000000000000071600008D6
:10015000716000087160000871600008716000083B
:1001600071600008716000080000000000000000DD
:10017000000000000000000000000000000000007F
:100180000000000071600008000000000000000096
:040190007160000892
:1001C00081F0004102E000BF83F0004330B54FEA08
:1001D00041044FEA430594EA050F08BF90EA020F75
:1001E0001FBF54EA000C55EA020C7FEA645C7FEA08
:1001F000655C00F0E2804FEA5454D4EB5555B8BF2B
:100200006D420CDD2C4480EA020281EA030382EA9B
:10021000000083EA010180EA020281EA0303362D2D
:1002200088BF30BD11F0004F4FEA01314FF4801C00
:100230004CEA113102D0404261EB410113F0004F12
:100240004FEA03334CEA133302D0524263EB4303C9
:1002500094EA050F00F0A780A4F10104D5F1200E67
:100260000DDB02FA0EFC22FA05F2801841F10001C2
:1002700003FA0EF2801843FA05F359410EE0A5F196
:1002800020050EF1200E012A03FA0EFC28BF4CF0C7
:10029000020C43FA05F3C01851EBE37101F000457D
:1002A00007D54FF0000EDCF1000C7EEB00006EEB8A
:1002B0000101B1F5801F1BD3B1F5001F0CD3490814
:1002C0005FEA30004FEA3C0C04F101044FEA44526B
:1002D00012F5800F80F09A80BCF1004F08BF5FEAF2
:1002E000500C50F1000041EB045141EA050130BDD2
:1002F0005FEA4C0C404141EB0101013C28BFB1F5E4
:10030000801FE9D291F0000F04BF01460020B1FA2E
:1003100081F308BF2033A3F10B03B3F120020CDA01
:100320000C3208DD02F1140CC2F10C0201FA0CF0DF
:1003300021FA02F10CE002F11402D8BFC2F1200C44
:1003400001FA02F120FA0CFCDCBF41EA0C019040FA
:10035000E41AA2BF01EB0451294330BD6FEA040443
:100360001F3C1CDA0C340EDC04F11404C4F120022E
:1003700020FA04F001FA02F340EA030021FA04F340
:1003800045EA030130BDC4F10C04C4F1200220FA97
:1003900002F001FA04F340EA0300294630BD21FAD5
:1003A00004F0294630BD94F0000F83F4801306BF9B
:1003B00081F480110134013D4EE77FEA645C18BF8F
:1003C0007FEA655C29D094EA050F08BF90EA020F26
:1003D00005D054EA000C04BF1946104630BD91EA1E
:1003E000030F1EBF0021002030BD5FEA545C05D121
:1003F0004000494128BF41F0004130BD14F5800460
:100400003CBF01F5801130BD01F0004545F0FE41D3
:1004100041F470014FF0000030BD7FEA645C1ABF08
:10042000194610467FEA655C1CBF0B46024650EA3F
:10043000013406BF52EA033591EA030F41F400216B
:1004400030BD00BF90F0000F04BF0021704730B5F1
:100450004FF4806404F132044FF000054FF00001C6
:1004600050E700BF90F0000F04BF0021704730B587
:100470004FF4806404F1320410F0004548BF40425C
:100480004FF000013EE700BF42004FEAE2014FEAB1
:1004900031014FEA02701FBF12F07F4393F07F4F8C
:1004A00081F06051704732F07F4208BF704793F08F
:1004B0007F4F04BF41F40021704730B54FF46074A2
:1004C00001F0004521F000411CE700BF50EA0102A5
:1004D00008BF704730B54FF000050AE050EA01024E
:1004E00008BF704730B511F0004502D5404261EBBE
:1004F00041014FF4806404F132045FEA915C3FF4FF
:10050000D8AE4FF003025FEADC0C18BF03325FEA9B
:10051000DC0C18BF033202EBDC02C2F1200300FA4C
:1005200003FC20FA02F001FA03FE40EA0E0021FA71
:1005300002F11444BDE600BF70B54FF0FF0C4CF45F
:10054000E06C1CEA11541DBF1CEA135594EA0C0F11
:1005500095EA0C0F00F0DEF82C4481EA030621EA4C
:100560004C5123EA4C5350EA013518BF52EA033587
:1005700041F4801143F4801338D0A0FB02CE4FF039
:100580000005E1FB02E506F00042E0FB03E54FF069
:100590000006E1FB03569CF0000F18BF4EF0010E61
:1005A000A4F1FF04B6F5007F64F5407404D25FEA5D
:1005B0004E0E6D4146EB060642EAC62141EA555110
:1005C0004FEAC52040EA5E504FEACE2EB4F1FD0C52
:1005D00088BFBCF5E06F1ED8BEF1004F08BF5FEAD0
:1005E000500E50F1000041EB045170BD06F0004682
:1005F00046EA010140EA020081EA0301B4EB5C042F
:10060000C2BFD4EB0C0541EA045170BD41F4801126
:100610004FF0000E013C00F3AB8014F1360FDEBF4B
:10062000002001F0004170BDC4F10004203C35DA27
:100630000C341BDC04F11404C4F1200500FA05F3AA
:1006400020FA04F001FA05F240EA020001F000424B
:1006500021F0004110EBD37021FA04F642EB0601C1
:100660005EEA430E08BF20EAD37070BDC4F10C04EB
:10067000C4F1200500FA04F320FA05F001FA04F2AF
:1006800040EA020001F0004110EBD37041F100019B
:100690005EEA430E08BF20EAD37070BDC4F12005A6
:1006A00000FA05F24EEA020E20FA04F301FA05F20E
:1006B00043EA020321FA04F001F0004121FA04F2B6
:1006C00020EA020000EBD3705EEA430E08BF20EA86
:1006D000D37070BD94F0000F0FD101F000464000C0
:1006E00041EB010111F4801F08BF013CF7D041EA42
:1006F000060195F0000F18BF704703F00046520046
:1007000043EB030313F4801F08BF013DF7D043EA16
:100710000603704794EA0C0F0CEA135518BF95EACC
:100720000C0F0CD050EA410618BF52EA4306D1D153
:1007300081EA030101F000414FF0000070BD50EA72
:10074000410606BF1046194652EA430619D094EAFC
:100750000C0F02D150EA013613D195EA0C0F05D1E6
:1007600052EA03361CBF104619460AD181EA03013A
:1007700001F0004141F0FE4141F470014FF00000F2
:1007800070BD41F0FE4141F4780170BD70B54FF08D
:10079000FF0C4CF4E06C1CEA11541DBF1CEA13550D
:1007A00094EA0C0F95EA0C0F00F0A7F8A4EB0504EF
:1007B00081EA030E52EA03354FEA013100F08880E6
:1007C0004FEA03334FF0805545EA131343EA1263AF
:1007D0004FEA022245EA111545EA10654FEA002664
:1007E0000EF000419D4208BF964244F1FD0404F51D
:1007F000407402D25B084FEA3202B61A65EB030579
:100800005B084FEA32024FF480104FF4002CB6EB35
:10081000020E75EB030E22BFB61A754640EA0C00B5
:100820005B084FEA3202B6EB020E75EB030E22BFF5
:10083000B61A754640EA5C005B084FEA3202B6EB36
:10084000020E75EB030E22BFB61A754640EA9C00F5
:100850005B084FEA3202B6EB020E75EB030E22BFC5
:10086000B61A754640EADC0055EA060E18D04FEA83
:10087000051545EA16754FEA06164FEAC30343EA23
:1008800052734FEAC2025FEA1C1CC0D111F4801FF0
:100890000BD141EA00014FF000004FF0004CB6E7E9
:1008A00011F4801F04BF01430020B4F1FD0C88BF88
:1008B000BCF5E06F3FF6AFAEB5EB030C04BFB6EB93
:1008C000020C5FEA500C50F1000041EB045170BD86
:1008D0000EF0004E4EEA113114EB5C04C2BFD4EBB3
:1008E0000C0541EA045170BD41F480114FF0000E37
:1008F000013C90E645EA060E8DE60CEA135594EAB3
:100900000C0F08BF95EA0C0F3FF43BAF94EA0C0FB5
:100910000AD150EA01347FF434AF95EA0C0F7FF42A
:1009200025AF104619462CE795EA0C0F06D152EA7E
:1009300003353FF4FDAE1046194622E750EA410662
:1009400018BF52EA43067FF4C5AE50EA41047FF473
:100950000DAF52EA43057FF4EBAE12E74FF0FF3CD8
:1009600006E000BF4FF0010C02E000BF4FF0010CA9
:100970004DF804CD4FEA410C7FEA6C5C4FEA430C22
:1009800018BF7FEA6C5C1BD001B050EA410C0CBF71
:1009900052EA430C91EA030F02BF90EA020F0020D3
:1009A000704710F1000F91EA030F58BF994208BF3A
:1009B00090422CBFD8176FEAE37040F001007047F7
:1009C0004FEA410C7FEA6C5C02D150EA013C07D14E
:1009D0004FEA430C7FEA6C5CD6D152EA033CD3D099
:1009E0005DF8040B704700BF8446104662468C4693
:1009F0001946634600E000BF01B5FFF7B7FF0028C6
:100A000048BF10F1000F01BD4DF808EDFFF7F4FFEE
:100A10000CBF012000205DF808FB00BF4DF808ED79
:100A2000FFF7EAFF34BF012000205DF808FB00BF9C
:100A30004DF808EDFFF7E0FF94BF012000205DF8BE
:100A400008FB00BF4DF808EDFFF7CEFF94BF012073
:100A500000205DF808FB00BF4DF808EDFFF7C4FF6C
:100A600034BF012000205DF808FB00BF4FEA4102BF
:100A700012F5001215D211D56FF47873B3EB6252F0
:100A800012D94FEAC12343F0004343EA505311F017
:100A9000004F23FA02F018BF404270474FF00000A9
:100AA000704750EA013005D111F0004008BF6FF0E7
:100AB000004070474FF00000704700BF53B94AB97B
:100AC000002908BF00281CBF4FF0FF314FF0FF3056
:100AD00000F00CB8ADF1080C6DE904CE05F0CAFACF
:100AE000DDF804E0DDE9022304B07047704700BF81
:100AF00001F0FF01102A2BDB10F0070F08D010F8CF
:100B0000013B013A8B422DD010F0070F42B3F6D1D2
:100B1000F0B441EA012141EA014122F007047FF0EB
:100B200000070023F0E80256083C85EA010586EA42
:100B3000010685FA47F5A3FA87F586FA47F6A5FA7E
:100B400087F68EB9EED1F0BC01F0FF0102F007028A
:100B500032B110F8013B013A83EA010313B1F8D135
:100B60000020704701387047002D06BF3546033816
:100B7000073815F0010F07D1013015F4807F02BF4F
:100B8000013015F4C03F0130F0BC0138704700BFA0
:100B90000000000000000000000000000000000055
:100BA0000000000000000000000000000000000045
:100BB0000000000000000000000000000000000035
:100BC00030B490F800F020F007016FF0000C10F046
:100BD000070491F820F040F048804FF000046FF0D7
:100BE0000700D1E9002391F840F000F1080082FAF3
:100BF0004CF2A4FA8CF283FA4CF3A2FA8CF34BBBBE
:100C0000D1E9022382FA4CF200F10800A4FA8CF236
:100C100083FA4CF3A2FA8CF3E3B9D1E9042382FA04
:100C20004CF200F10800A4FA8CF283FA4CF3A2FA19
:100C30008CF37BB9D1E9062301F1200182FA4CF251
:100C400000F10800A4FA8CF283FA4CF3A2FA8CF3B8
:100C5000002BC6D0002A04BF04301A4612BAB2FADA
:100C600082F200EBD20030BC7047D1E9002304F0DF
:100C70000305C4F100004FEAC50514F0040F91F814
:100C800040F00CFA05F562EA05021CBF63EA0503B1
:100C900062464FF00004AAE7844641EA000313F0DD
:100CA00003036DD1403A41D351F8043B40F8043B73
:100CB00051F8043B40F8043B51F8043B40F8043B36
:100CC00051F8043B40F8043B51F8043B40F8043B26
:100CD00051F8043B40F8043B51F8043B40F8043B16
:100CE00051F8043B40F8043B51F8043B40F8043B06
:100CF00051F8043B40F8043B51F8043B40F8043BF6
:100D000051F8043B40F8043B51F8043B40F8043BE5
:100D100051F8043B40F8043B51F8043B40F8043BD5
:100D200051F8043B40F8043B403ABDD2303211D375
:100D300051F8043B40F8043B51F8043B40F8043BB5
:100D400051F8043B40F8043B51F8043B40F8043BA5
:100D5000103AEDD20C3205D351F8043B40F8043B75
:100D6000043AF9D2043208D0D2071CBF11F8013B73
:100D700000F8013B01D30B8803806046704700BF39
:100D8000082A13D38B078DD010F003038AD0C3F148
:100D90000403D21ADB071CBF11F8013B00F8013B2A
:100DA00080D331F8023B20F8023B7BE7043AD9D3E9
:100DB000013A11F8013B00F8013BF9D20B780370BE
:100DC0004B7843708B788370604670474FEA410CD4
:100DD0007FEA6C5C02D150EA013C0AD14FEA430C35
:100DE0007FEA6C5C02D152EA033C02D14FF0000072
:100DF00070474FF0010070470348044B834202D014
:100E0000034B03B118477047902C0020902C002012
:100E1000000000000548064B1B1AD90F01EBA30187
:100E2000491002D0034B03B118477047902C0020A3
:100E3000902C00200000000010B5064C237843B928
:100E4000FFF7DAFF044B13B10448AFF3008001232E
:100E5000237010BD902C002000000000E0E5000889
:100E600008B5054B1BB105490548AFF30080BDE847
:100E70000840FFF7CFBF00BF00000000942C002007
:100E8000E0E5000810B504460E4B1A784FF47A736B
:100E9000B3FBF2F30C4A1068B0FBF3F000F0EEFB8A
:100EA00068B90F2C01D901200AE0002221464FF039
:100EB000FF3000F0C5FB054B1C60002000E0012066
:100EC00010BD00BF00000020C0250020040000204D
:100ED00008B50B4B1A6842F400721A601A6842F4A3
:100EE00080621A601A6842F480721A60032000F06F
:100EF00095FB0F20FFF7C6FF04F0EAFE002008BDB7
:100F0000003C0240034A1168034B1B780B441360FA
:100F1000704700BFAC2C002000000020014B186877
:100F2000704700BFAC2C002038B50446FFF7F6FF31
:100F30000546B4F1FF3F02D0044B1B781C44FFF779
:100F4000EDFF401BA042FAD338BD00BF00000020D7
:100F50004A4B5A6822F440325A605A6841680A4340
:100F60005A600268536823F48073536002685368C0
:100F7000016943EA012353600268536823F0407318
:100F800053600268536881680B435360026893683A
:100F900023F40063936002689368C1680B43936015
:100FA000826A374B9A4257D00268936823F0706385
:100FB000936002689368816A0B4393600268936848
:100FC00023F04053936002689368C16A0B439360B7
:100FD0000268936823F00203936002689368017EBD
:100FE00043EA4103936090F82030002B3FD0026821
:100FF000536843F4006353600268536823F460430A
:10100000536001684B68426A013A43EA42334B60DD
:101010000268D36A23F47003D3620168CB6AC269A1
:10102000013A43EA0253CB620268936823F40073E7
:1010300093600268936890F8301043EA412393600C
:101040000268936823F4806393600268936841693F
:1010500043EA8123936070470268936823F07063CA
:1010600093600268936823F040539360B0E702688E
:10107000536823F400635360CAE700BF00230140B4
:101080000100000F38B310B50446036C43B1236C64
:1010900013F0100F0BD00120002384F83C3010BD5A
:1010A00004F032FE0023636484F83C30EFE7236CE5
:1010B00023F4885323F0020343F002032364204601
:1010C000FFF746FF00206064236C23F0030343F026
:1010D00001032364E0E701207047000010B582B0EF
:1010E00013460022019290F83C20012A00F09480DF
:1010F0000446012280F83C200268906810F0010F3D
:1011000013D1906840F001009060464A1068464A4A
:10111000A2FB0020800C00EB4000019002E001984F
:101120000138019001980028F9D12268906810F4E4
:10113000807F03D0906820F480709060226890686F
:1011400010F0010F5DD0206C20F4E06020F0010071
:1011500040F480702064526812F4806F05D0226CD5
:1011600022F4405242F480522264226C12F4805FD6
:1011700034D0626C22F006026264002284F83C20C3
:10118000A26B2A48D063A26B29481064A26B29483D
:10119000D06422686FF0220010602068426842F03C
:1011A000806242602068826842F4807282602068B7
:1011B0000A4600F14C01A06B00F058FB1E4B5B6827
:1011C00013F01F0F0DD123689A6812F0405F25D1EC
:1011D0009A6842F080429A6000201BE0002262641C
:1011E000CBE72368154A934201D0002012E09A68A9
:1011F00012F0405F14D19A6842F080429A60002059
:1012000008E0236C43F010032364636C43F0010394
:101210006364002002B010BD0220FBE70020F9E764
:101220000020F7E7C025002083DE1B43A913000838
:1012300043120008931300080023014000200140DE
:10124000704708B5806BFFF7FBFF08BD704770471C
:1012500070B5044603681E685D6816F0020F2FD053
:1012600005F0200262B3026C12F0100F03D1026C81
:1012700042F4007202649A6812F0405F19D1227E33
:10128000BAB9DA6A12F4700F03D09A6812F4806F58
:101290000FD15A6822F020025A60236C23F4807325
:1012A0002364236C13F4805F03D1236C43F00103A8
:1012B0002364204604F076F823686FF012021A6067
:1012C00005F0800316F0040F37D0002B35D0236CC7
:1012D00013F0100F03D1236C43F4005323642368ED
:1012E0009A6812F4401F21D19A6B12F4401F03D068
:1012F0009A6812F4806F19D15A6812F4806F15D170
:101300009A6812F0405F11D1227E7AB95A6822F0B1
:1013100080025A60236C23F480532364236C13F4FB
:10132000807F03D1236C43F001032364204600F047
:101330003FF923686FF00C021A6005F0400316F0C5
:10134000010F05D023B123681B6813F0010F06D1EC
:1013500005F0806516F0200F00D065B970BD236CD4
:1013600043F4803323642046FFF770FF23686FF057
:1013700001021A60ECE7636C43F0020363642368C4
:101380006FF020051D602046FFF761FF23681D6098
:10139000E4E708B5806B40230364436C43F0040327
:1013A0004364FFF754FF08BD08B50346806B026C29
:1013B00012F0500F25D1036C43F4007303640368EB
:1013C0009A6812F0405F19D1027EBAB9DA6A12F453
:1013D000700F03D09A6812F4806F0FD15A6822F010
:1013E00020025A60036C23F480730364036C13F4CB
:1013F000805F03D1036C43F00103036403F0D2FF69
:1014000008BD026C12F0100F04D1826BD26C18462A
:101410009047F5E7FFF71BFFF2E7000030B482B01A
:101420000022019290F83C20012A00F0B680034689
:10143000012280F83C200A68092A40D90468E06843
:1014400092B202EB42021E3A4FF0070C0CFA02F283
:1014500020EA0202E2601C68E0680A8802EB4202AD
:101460001E3A8D6805FA02F20243E2604A68062AD3
:101470003CD81C68606B02EB8202053A4FF01F0CEF
:101480000CFA02F220EA020262631C68606B4A688E
:1014900002EB8202053AB1F800C00CFA02F20243F4
:1014A000626318683E4A904250D018683C4A9042A5
:1014B00055D0002083F83C0002B030BC704704686F
:1014C000206992B202EB42024FF0070C0CFA02F2D2
:1014D00020EA020222611C6820690A8802EB4202AB
:1014E0008D6805FA02F202432261BFE70C2A16D882
:1014F0001D68286B02EB8202233A1F2404FA02F2D1
:1015000020EA02022A631D68286B4A6802EB820205
:10151000233A0C8804FA02F202432A63C1E71D68E9
:10152000E86A02EB8202413A1F2404FA02F220EA3E
:101530000202EA621D68E86A4A6802EB8202413AE6
:101540000C8804FA02F20243EA62AAE70A68122A45
:10155000ABD11448426842F480024260A5E70A68B1
:10156000103A012AA5D80F48426842F400024260AE
:101570000A68102A9DD10C4A12680C49A1FB02127C
:10158000920C02EB82025200019202E0019A013AAF
:101590000192019A002AF9D18BE702208CE700BF63
:1015A0000020014000230140C025002083DE1B43B2
:1015B00070470000002808DB0901C9B200F1604053
:1015C00000F5614080F80013704700F00F0009013A
:1015D000C9B2014B1954704714ED00E000B500F09A
:1015E0000700C0F1070CBCF1040F28BF4FF0040C3A
:1015F000031D062B0FD9C31E4FF0FF3E0EFA0CF051
:1016000021EA000199400EFA03FE22EA0E0241EAA5
:1016100002005DF804FB0023EEE70000074AD368F0
:1016200023F4E0631B041B0C000200F4E06003439E
:1016300043F0BF6343F40033D360704700ED00E034
:1016400010B50446054BD868C0F30220FFF7C6FF6B
:1016500001462046FFF7AEFF10BD00BF00ED00E0E1
:10166000002807DB00F01F02400901239340024AD3
:1016700042F82030704700BF00E100E00138B0F1CF
:10168000807F0BD24FF0E0235861054AF02182F8A9
:1016900023100020986107221A61704701207047CB
:1016A00000ED00E030B405682C6824F480242C6040
:1016B000046863608368402B05D003689960036801
:1016C000DA6030BC704703689A600368D960F8E755
:1016D00010B40368D9B210390B4AA2FB01421209B7
:1016E0000A4CA25CC2655F2908D923F47F7323F0FA
:1016F000030304338365806D10BC704723F47F734C
:1017000023F003038365F6E7ABAAAAAAF8E500086D
:10171000836A826992B9012B0AD0022B02D00BB1E5
:1017200000207047C36A13F0807F28D100207047E3
:10173000C36AB3F1C07F24D000207047B2F5005FC8
:1017400009D0022B25D9032B25D1C36A13F0807F42
:1017500023D100207047032B03D8DFE803F01404E3
:10176000140A00207047C36A13F0807F0DD1002057
:101770007047C36AB3F1C07F09D0002070470120D1
:1017800070470120704701207047012070470120F9
:10179000704701207047002070470120704700000B
:1017A00070B50446FFF7BAFB002C5BD00546022358
:1017B00084F83530002384F834302268136823F02D
:1017C0000103136023681A6812F0010F0AD0FFF7B3
:1017D000A5FB431B052BF5D920236365032084F863
:1017E000350070BD1A68204911406268A068024344
:1017F000E06802432069024360690243A069024332
:10180000E0690243206A02430A43616A04291ED048
:101810001A602668756925F00705636A1D43042B65
:1018200007D1A36A1D43E36A1BB12046FFF770FF8F
:1018300090B975612046FFF74BFFE26D3F2393405F
:10184000836000206065012384F83530C9E7E16AD0
:10185000206B01430A43DBE740236365012084F8E2
:101860003500BEE70120BCE73F8010F038B50446E4
:10187000856D90F8340001282BD0012084F83400C5
:1018800094F83500C0B2012804D0002384F8343025
:10189000022038BD022084F8350000206065204613
:1018A000FFF700FFE26D3F239340AB6022681368AF
:1018B00043F016031360236C23B12268136843F0CE
:1018C000080313602268136843F0010313600020CB
:1018D000DFE70220DDE70000F0B583B00446002317
:1018E0000193724B1D68724BA3FB0535AD0A876DE2
:1018F0003E68C26D08239340334210D003681A68D3
:1019000012F0040F0BD01A6822F004021A60C26DA4
:1019100008239340BB60436D43F001034365E26DD0
:1019200001239340334209D02268526912F0800F9C
:1019300004D0BB60636D43F002036365E26D042372
:101940009340334209D02268126812F0020F04D08B
:10195000BB60636D43F004036365E26D1023934045
:10196000334224D02268126812F0080F1FD0BB60E7
:1019700023681A6812F4802F0DD01B6813F4002F0F
:1019800004D1236C9BB12046984710E0A36C73B13F
:10199000204698470BE01A6812F4807F03D11A683A
:1019A00022F008021A60236C0BB120469847E26DC2
:1019B00020239340334255D02268126812F0100F52
:1019C00050D0BB6094F83530DBB2052B0ED02368C5
:1019D0001A6812F4802F33D01B6813F4002F2AD119
:1019E000636C002B3ED0204698473BE0226813688A
:1019F00023F0160313602268536923F080035361B8
:101A0000236CA3B12268136823F008031360E26D0E
:101A10003F239340BB60012384F83530002384F8D2
:101A20003430236D002B3FD0204698473CE0A36C18
:101A3000002BE7D1EBE7E36BA3B12046984711E019
:101A40001A6812F4807F09D11A6822F010021A6015
:101A5000012384F83530002384F83430E36B0BB174
:101A600020469847636DFBB1636D13F0010F17D0EB
:101A7000052384F835302268136823F001031360CE
:101A8000019B01330193AB4204D823681B6813F018
:101A9000010FF5D1012384F83530002384F8343068
:101AA000E36C0BB12046984703B0F0BDC025002081
:101AB000B5814E1B00230F2B00F2DA8030B583B0C6
:101AC00068E085684FEA430E032404FA0EF425EA21
:101AD0000405CC6804FA0EF42C438460446824EABC
:101AE00002044A68C2F300129A40224342605FE057
:101AF000DC08083450F8242003F00705AD004FF04F
:101B00000F0E0EFA05FE22EA0E0E0A69AA4042EAFC
:101B10000E0240F824205FE0042200E0002202FAD6
:101B20000EF22A430234534D45F82420524A946859
:101B30006FEA0C0224EA0C05D1F804E01EF4801FC1
:101B400001D04CEA04054C4CA560E46802EA0405A7
:101B5000D1F804E01EF4001F01D04CEA0405464C05
:101B6000E560646802EA0405D1F804E01EF4003F71
:101B700001D04CEA0405404C6560246822404D6861
:101B800015F4803F01D04CEA04023B4C2260013343
:101B90000F2B6BD801229A400C6804EA020C32EA3F
:101BA0000404F4D14C6804F00304013C012C88D9EE
:101BB0004A6802F00302032A09D0C4685D000322C8
:101BC000AA4024EA02048A68AA402243C2604A6802
:101BD00002F00302022A8BD004684FEA430E03226C
:101BE00002FA0EF224EA02044A6802F0030202FA40
:101BF0000EF2224302604A6812F4403FC7D000222E
:101C000001921E4A546C44F480445464526C02F4B1
:101C100080420192019A9C08A51C164A52F8255050
:101C200003F0030E4FEA8E0E0F2202FA0EF225EA9F
:101C30000205134A90423FF471AF02F58062904270
:101C40000ED002F5806290420CD002F58062904284
:101C50000AD002F5806290423FF45EAF07225EE751
:101C600001225CE702225AE7032258E703B030BDA5
:101C7000704700BF00380140003C0140003802407E
:101C8000000002400AB18161704709048161704718
:101C900003685A6912F4806F01D1002070476FF415
:101CA00080625A6100230363202280F83D2080F87F
:101CB0003E30026C42F00402026480F83C300120A5
:101CC00070472DE9F04107460D4690461E4624E038
:101CD000FFF724F9069BC01AB04200D8EEB90023E2
:101CE0003B63202287F83D2087F83E303A6C42F073
:101CF00020023A6487F83C3001201EE03B689C6972
:101D000025EA040C1FFA8CFCBCFA8CFC4FEA5C1C24
:101D1000E04511D1B6F1FF3FDAD1C5F30743012BFE
:101D2000ECD13B685B6925EA030C1FFA8CFCBCFA1A
:101D30008CFC4FEA5C1CEBE70020BDE8F0812DE94C
:101D4000F04105460E46174698463DE01A6842F4B3
:101D500000721A602B686FF480625A6100232B6353
:101D6000202285F83D2085F83E302A6C42F004029E
:101D70002A6485F83C30012034E0FFF7CFF8A0EB6F
:101D80000800B84200D8FFB900232B63202285F851
:101D90003D2085F83E302A6C42F020022A6485F806
:101DA0003C3001201EE02B689C6926EA0404A4B2A2
:101DB000003C18BF0124A4B12B685A6912F4806F4B
:101DC000C4D1B7F1FF3FD8D1C6F30743012BEAD105
:101DD0002B685C6926EA0404A4B2003C18BF012405
:101DE000E9E70020BDE8F081F0B583B004460D4678
:101DF00016461F46C36A082B0DD0012B0BD013F5D6
:101E0000803F08D0036B122B0AD10268136843F499
:101E10008073136004E02268136843F480731360D6
:101E20000097334600224FF001112046FFF749FF8B
:101E300080B92369B3F5804F16D1236805F0FE05FC
:101E40001D613B46324613492046FFF778FFF8B93B
:101E500003B0F0BD23681B6813F4807F02D04FF4F9
:101E6000007323640320F3E7EB11226803F00603F9
:101E700043F0F00313613B46324607492046FFF723
:101E80005EFF18B92368EDB21D61DAE70120DFE7D4
:101E90000120DDE7020001000800010070B50446E2
:101EA0000D46164623685B6913F0800F1CD120464F
:101EB000FFF7EEFED0B9B5F1FF3FF3D0FFF72EF8F4
:101EC000801BA84201D8002DECD1002323632022DF
:101ED00084F83D2084F83E30226C42F020022264D7
:101EE00084F83C30012000E0002070BD0120FCE7B8
:101EF00070B504460D46164623685B6913F0040F5F
:101F00001CD12046FFF7C4FED0B9B5F1FF3FF3D096
:101F1000FFF704F8801BA84201D8002DECD1002364
:101F20002363202284F83D2084F83E30226C42F066
:101F30002002226484F83C30012000E0002070BDC3
:101F40000120FCE7002800F0CC8070B5044690F832
:101F50003D30002B77D0242384F83D30226813686D
:101F600023F0010313602268136843F400431360F5
:101F70002268136823F40043136000F083FC626856
:101F80005A4B9A4264D85A4B98428CBF0023012383
:101F9000002B40F0A8805749A1FB00318B0C25682D
:101FA0006A6822F03F0242EA91426A6021680A6A46
:101FB00022F03F0266684D4DAE424FD801331343C5
:101FC0000B622168CA6922F44F4222F0FF02656861
:101FD000464B9D424CD8431E6D00B3FBF5F30133D5
:101FE00040F6FC70034278D0C3F30B031A43CA6176
:101FF00021680B6823F0C003E269206A024313439F
:102000000B6021688B6823F4034323F0FF032269EC
:10201000E068024313438B602168CB6823F0FF0321
:102020006269A06902431343CB602268136843F0DE
:102030000103136000202064202384F83D302063D6
:1020400084F83E0070BD80F83C3003F0CFFE82E79C
:10205000294B98428CBF0023012399E74FF49675D2
:1020600005FB03F3254DA5FB03539B090133A6E7AD
:10207000A668BEB9431E05EB450CB3FBFCF3013368
:10208000C3F30B03B3FA83F35B0943BBC6B9431E27
:1020900005EB4505B3FBF5F30133C3F30B0343F441
:1020A0000043A3E7431E05EB850C0CEB8C0CB3FB44
:1020B000FCF30133C3F30B03B3FA83F35B09E4E7E7
:1020C000431E05EB850505EB8505B3FBF5F30133F1
:1020D000C3F30B0343F4404388E7042386E701235B
:1020E00084E7012070470120ACE700BFA086010013
:1020F0007F841E0083DE1B43FF083D00D34D62102A
:102100002DE9F04385B004460F46914698460C9E53
:10211000FEF704FF054694F83D00C0B2202804D025
:102120000227384605B0BDE8F08300951923012247
:102130004F492046FFF7C5FD002840F0928094F8F3
:102140003C30012B00F08F80012384F83C30236861
:102150001A6812F0010F03D11A6842F001021A60E6
:102160002268136823F400631360212384F83D3050
:10217000102384F83E3000232364C4F82490A4F88C
:102180002A80638D23853B4BE3622B4632463946DA
:102190002046FFF729FE0746002866D10023039357
:1021A00023685A6903929B690393039B11E0236C94
:1021B000042B01D00127B4E72268136843F40073AD
:1021C0001360F7E72A4631462046FFF791FE0028C4
:1021D0002ED1238D002B36D02A4631462046FFF7DC
:1021E0005DFE0028E3D1626A236812781A61606A92
:1021F000431C6362618D89B2013989B26185238D87
:10220000013B9BB223852268516911F0040FD9D09C
:10221000002BD7D043781361636A01336362638D07
:102220009BB2013B9BB26385238D013B2385C9E7AC
:10223000236C042B01D0012773E72268136843F451
:1022400000731360F7E72268136843F400731360A8
:10225000202384F83D30002384F83E3084F83C305D
:102260005FE702275DE702275BE7012759E700BF29
:10227000020010000000FFFF002800F0E08170B5B0
:1022800082B00446036813F0010F3BD09F4B9B685C
:1022900003F00C03042B2CD09C4B9B6803F00C0325
:1022A000082B21D06368B3F5803F4FD0B3F5A02F42
:1022B00052D0964B1A6822F480321A601A6822F4BF
:1022C00080221A606368002B50D0FEF727FE054677
:1022D0008E4B1B6813F4003F14D1FEF71FFE401B0A
:1022E0006428F5D90320B1E1884B5B6813F4800FB3
:1022F000D8D0864B1B6813F4003F03D06368002BD3
:1023000000F09F81236813F0020F54D07F4B9B682D
:1023100013F00C0F3ED07D4B9B6803F00C03082B91
:1023200033D0E368002B68D0794B01221A60FEF7A6
:10233000F5FD0546754B1B6813F0020F54D1FEF7EF
:10234000EDFD401B0228F5D903207FE16F4A136899
:1023500043F480331360B5E76C4B1A6842F4802273
:102360001A601A6842F480321A60ABE7FEF7D6FDB5
:102370000546664B1B6813F4003FC3D0FEF7CEFD45
:10238000401B6428F5D9032060E1604B5B6813F4BF
:10239000800FC6D15D4B1B6813F0020F03D0E368BA
:1023A000012B40F05081594A136823F0F80321694A
:1023B00043EAC1031360236813F0080F42D0636936
:1023C0006BB3534B0122C3F8802EFEF7A7FD0546E1
:1023D0004E4B5B6F13F0020F34D1FEF79FFD401B95
:1023E0000228F5D9032031E1484A136823F0F803A5
:1023F000216943EAC1031360DDE7454B00221A60FF
:10240000FEF78CFD0546414B1B6813F0020FD2D03E
:10241000FEF784FD401B0228F5D9032016E13C4B52
:102420000022C3F8802EFEF779FD0546374B5B6F1F
:1024300013F0020F06D0FEF771FD401B0228F5D9FC
:10244000032003E1236813F0040F77D02F4B1B6C9C
:1024500013F0805F33D1002301932C4B1A6C42F0B0
:1024600080521A641B6C03F080530193019B012579
:10247000284B1B6813F4807F23D0A368012B34D032
:10248000052B38D0214B1A6F22F001021A671A6F00
:1024900022F004021A67A368002B3DD0FEF73EFD30
:1024A00006461A4B1B6F13F0020F46D1FEF736FD9E
:1024B000801B41F288339842F3D90320C6E00025FF
:1024C000D6E7144A136843F480731360FEF726FDC1
:1024D0000646104B1B6813F4807FCED1FEF71EFD1D
:1024E000801B0228F5D90320B0E0084A136F43F09F
:1024F00001031367CFE7054B1A6F42F004021A6716
:102500001A6F42F001021A67C5E700BF00380240A7
:102510000000474200700040FEF700FD0646524BA7
:102520001B6F13F0020F08D0FEF7F8FC801B41F27E
:1025300088339842F3D9032088E0EDB9A369002BD2
:1025400000F08380484A926802F00C02082A51D0B9
:10255000022B17D0454B00221A66FEF7DFFC04461B
:10256000414B1B6813F0007F42D0FEF7D7FC001BE5
:102570000228F5D9032069E03B4A136C23F080530D
:102580001364DBE7394B00221A66FEF7C7FC0546E9
:10259000354B1B6813F0007F06D0FEF7BFFC401BD5
:1025A0000228F5D9032051E0E369226A1343626AE5
:1025B00043EA8213A26A5208013A43EA0243E26AFA
:1025C00043EA0263284A5360284B01221A66FEF749
:1025D000A5FC0446244B1B6813F0007F06D1FEF7D0
:1025E0009DFC001B0228F5D903202FE000202DE0E0
:1025F00000202BE0012B2BD01B4B5B6803F48001E8
:10260000E269914226D103F03F02216A8A4223D136
:10261000616A47F6C0721A40B2EB811F1ED103F403
:102620004031A26A5208013AB1EB024F18D103F0CF
:102630007063E26AB3EB026F14D1002006E0012060
:102640007047012002E0012000E0002002B070BDD0
:102650000120FBE70120F9E70120F7E70120F5E77A
:102660000120F3E70120F1E7003802400000474273
:1026700008B5264B9B6803F00C03042B41D0082BB4
:1026800041D1224B5A6802F03F025B6813F4800F7D
:1026900012D01E4B5968C1F388111D480023A1FBBD
:1026A0000001FEF70BFA194B5B68C3F301430133DA
:1026B0005B00B0FBF3F027E0144B5868C0F38810C0
:1026C0004FEA401CBCEB000C6EEB0E0E4FEA8E1373
:1026D00043EA9C634FEA8C11B1EB0C0163EB0E03F0
:1026E000DB0043EA5173C90011EB000C43F1000316
:1026F000990200234FEA8C2041EA9C51FEF7DEF953
:10270000D1E7034800E0034808BD00BF003802409D
:1027100040787D010024F400002800F09B8070B513
:102720000D4604464F4B1B6803F007038B4208D24B
:10273000CBB24C4A1370136803F007038B4240F08E
:102740008B80236813F0020F17D013F0040F04D00E
:10275000454A936843F4E0539360236813F0080FED
:1027600004D0414A936843F4604393603E4A9368BF
:1027700023F0F003A1680B439360236813F0010F6B
:1027800032D06368012B21D09A1E012A25D9364AFE
:10279000126812F0020F61D033498A6822F00302F6
:1027A00013438B60FEF7BAFB06462F4B9B6803F082
:1027B0000C036268B3EB820F16D0FEF7AFFB801BF1
:1027C00041F288339842F0D9032042E0264A126849
:1027D00012F4003FE0D101203BE0234A126812F0DE
:1027E000007FD9D1012034E01E4B1B6803F00703A2
:1027F000AB4207D9EAB21B4B1A701B6803F0070300
:10280000AB422DD1236813F0040F06D0164A93680B
:1028100023F4E053E1680B439360236813F0080F3F
:1028200007D0114A936823F46043216943EAC10346
:102830009360FFF71DFF0C4B9B68C3F303130B4A18
:10284000D35CD8400A4B18600A4B1868FEF71AFB95
:10285000002070BD012070470120FAE70120F8E751
:102860000120F6E7003C02400038024020E8000862
:10287000C025002004000020014B1868704700BFED
:10288000C025002008B5FFF7F7FF044B9B68C3F392
:102890008223034AD35CD84008BD00BF0038024001
:1028A00018E8000830B4036A23F001030362026AE7
:1028B0004568836923F073030C681C4322F002020D
:1028C0008B6813430B4A904206D0456084614A6886
:1028D0004263036230BC704723F00803CA681A439E
:1028E00022F0040325F440754A692A438D69154393
:1028F000EBE700BF0000014030B4036A23F48073AB
:102900000362036A4468C26922F073020D681543CA
:1029100023F400738A6843EA02230D4A904206D0EA
:102920004460C5614A68C263036230BC704723F4E7
:102930000063CA6843EA022323F4806324F440540A
:102940004A6944EA02148A6944EA0214E8E700BFCB
:102950000000014030B4036A23F480530362036A29
:102960004468C26922F4E6420D6842EA052223F473
:1029700000538D6843EA0533074DA84206D04460F2
:10298000C2614A680264036230BC704724F4804428
:102990004D6944EA8514F2E70000014010B4036A6F
:1029A000046A24F001040462846924F0F00C4CEA07
:1029B000021223F00A030B438261036210BC7047CA
:1029C00010B4036A23F0100303628469036A24F4D9
:1029D000704C4CEA023223F0A00343EA01138261F7
:1029E000036210BC7047836823F070030B4343F00D
:1029F000070383607047000090F83D30DBB2012B85
:102A00002AD1022380F83D300368154A934218D03A
:102A1000B3F1804F15D0A2F57C42934211D002F55C
:102A2000806293420DD002F58062934209D002F594
:102A30009A32934205D01A6842F001021A600020CF
:102A400070479A6802F00702062A07D01A6842F017
:102A500001021A6000207047012070470020704773
:102A6000000001400368196A41F21112114208D1B5
:102A7000196A40F24442114203D11A6822F001025D
:102A80001A60012380F83D30002070477047000035
:102A90000368254A90420ED0B0F1804F0BD0A2F5CA
:102AA0007C42904207D002F58062904203D002F54A
:102AB0008062904203D123F070034A6813431A4A9C
:102AC00090421AD0B0F1804F17D0A2F57C429042CC
:102AD00013D002F5806290420FD002F580629042DE
:102AE0000BD002F59A32904207D002F580629042F4
:102AF00003D002F58062904203D123F44073CA6888
:102B0000134323F080034A69134303608B68C36255
:102B10000B688362044B984202D0012343617047E3
:102B20000B690363F9E700BF0000014040B310B533
:102B3000044690F83D30F3B1022384F83D3021463D
:102B400051F8040BFFF7A4FF012384F8463084F802
:102B50003E3084F83F3084F8403084F8413084F8C7
:102B6000423084F8433084F8443084F8453084F8A7
:102B70003D30002010BD80F83C3003F06FF9DBE7FA
:102B80000120704740B310B5044690F83D30F3B1D2
:102B9000022384F83D30214651F8040BFFF778FFFB
:102BA000012384F8463084F83E3084F83F3084F8BE
:102BB000403084F8413084F8423084F8433084F85F
:102BC000443084F8453084F83D30002010BD80F852
:102BD0003C30FFF75BFFDBE70120704730B4036A4E
:102BE00023F010030362036A4468826922F4E64218
:102BF0000D6842EA052223F020038D6843EA05139D
:102C00000C4DA84206D0446082614A688263036228
:102C100030BC704723F08003CD6843EA051323F0EE
:102C2000400324F440644D6944EA85048D6944EA14
:102C30008504E8E70000014038B590F83C30012BEE
:102C400066D004460D46012380F83C300C2A5AD841
:102C5000DFE802F0075959591B5959593059595948
:102C600044000068FFF71EFE2268936943F00803E2
:102C700093612268936923F0040393612268936946
:102C800029690B43936100203EE00068FFF7A6FF2F
:102C90002268936943F4006393612268936923F483
:102CA0008063936122689369296943EA01239361F0
:102CB000002029E00068FFF71FFE2268D36943F077
:102CC0000803D3612268D36923F00403D361226827
:102CD000D36929690B43D361002015E00068FFF731
:102CE00039FE2268D36943F40063D3612268D36953
:102CF00023F48063D3612268D369296943EA0123FD
:102D0000D361002000E00120002384F83C3038BD6E
:102D10000220FCE710B4846824F47F4C42EA0322CA
:102D20000A4342EA0C02826010BC704790F83C30C3
:102D3000012B78D010B50446012380F83C300223E3
:102D400080F83D300268936823F47F4323F07703D3
:102D500093600B68602B4CD029D8402B54D00CD9F1
:102D6000502B22D1CA6849680068FFF717FE50212E
:102D70002068FFF738FE002005E0202B0DD009D990
:102D8000302B0AD00120012384F83D30002384F841
:102D90003C3010BD0BB1102B05D119462068FFF750
:102DA00022FE0020EFE70120EDE70120EBE7B3F57D
:102DB000805F34D0B3F5005F0CD1CB684A68896876
:102DC0000068FFF7A7FF2268936843F4804393608D
:102DD0000020D8E7702B24D1CB684A688968006846
:102DE000FFF798FF2268936843F077039360002011
:102DF000C9E7CA6849680068FFF7E2FD60212068FA
:102E0000FFF7F1FD0020BEE7CA6849680068FFF7D8
:102E1000C5FD40212068FFF7E6FD0020B3E7002054
:102E2000B1E70120AFE70220704701F01F014FF02A
:102E3000010C0CFA01FC036A23EA0C030362036A27
:102E40008A4013430362704710B5044608460029C0
:102E500032D194F83E30DBB2013B18BF0123002B86
:102E600063D1002841D1022384F83E30012201467B
:102E70002068FFF7DAFF23682E4A934245D0236883
:102E80002C4A934246D0B3F1804F43D0A2F57C4206
:102E900093423FD002F5806293423BD002F58062BC
:102EA000934237D002F59A32934233D01A6842F0F7
:102EB00001021A60002037E0042908D008290DD04B
:102EC00094F84130DBB2013B18BF0123C7E794F807
:102ED0003F30DBB2013B18BF0123C0E794F840301C
:102EE000DBB2013B18BF0123B9E7042805D008284D
:102EF00007D0022384F84130B8E7022384F83F303A
:102F0000B4E7022384F84030B0E75A6C42F4004240
:102F10005A64B4E79A6802F00702062A07D01A68D2
:102F200042F001021A60002010BD0120FCE70020E1
:102F3000FAE700BF0000014038B504460D46002204
:102F40000068FFF772FF23681B4A934214D023687E
:102F5000196A41F21112114208D1196A40F2444231
:102F6000114203D11A6822F001021A609DB90123AF
:102F700084F83E30002038BD196A41F21112114226
:102F8000E5D1196A40F244421142E0D15A6C22F470
:102F900000425A64DBE7042D05D0082D07D0012339
:102FA00084F84130E6E7012384F83F30E2E701236B
:102FB00084F84030DEE700BF0000014090F83C207C
:102FC000012A34D010B40346012280F83C200222AA
:102FD00080F83D2002685068946820F0700C086802
:102FE00040EA0C0050601A681248824212D0B2F1D6
:102FF000804F0FD0A0F57C4082420BD000F580605E
:10300000824207D000F58060824203D000F59A30FA
:10301000824204D124F08004496821439160012256
:1030200083F83D20002083F83C0010BC704702204C
:10303000704700BF0000014038B51F4B1B6883423A
:1030400009D004461C4B186030B91C4B1B68D3B127
:103050001A4B1B681BBB38BD194D08212868FFF7A8
:103060006BFF184B93FBF4F3286801685A1ECA6281
:10307000C26003EBD3735B100268013BD36308218A
:10308000FFF7E2FEE4E70E4C08212068FFF754FF4B
:103090002068FFF7E7FC094B01221A60DBE7074BCA
:1030A00000221A60064C2068FFF7A6FC0821206861
:1030B000FFF7CAFECFE700BFB82C0020B42C0020D9
:1030C000B02C002000093D0008B5054B1860FFF743
:1030D00093FC044B00221A60034B01221A6008BDC6
:1030E000B02C0020B82C0020B42C002070B506466F
:1030F0000D46104C2068FFF77FFC08212068FFF781
:10310000A3FE0D4890FBF6F022681168431ECB62C7
:10311000D36000EBD0735B101268013BD363284689
:10312000FDF702FF08212068FFF706FF2068FFF780
:1031300099FC70BDB02C002000093D002DE9F04144
:10314000234B1B68234A1468A3423CD0054604EB7A
:103150004402214B03EB82039B68002B0BDC04EB46
:1031600044021D4B03EB82035B68002B1EDC013421
:10317000184B1C6008E01446174A02EB84041B1A23
:10318000A3600020FFF758FF124B1B68B3F5806F58
:1031900002DB104B00221A600D4B1B68B3F5806FE9
:1031A00002DB0B4B00221A60BDE8F0810A4E06EBF1
:1031B000820856F82200FFF73FFFD8F804305B1B67
:1031C000C8F80430E0E70020FFF736FFDCE700BF77
:1031D000BC2C0020C02C0020C42C002030B50D4C8D
:1031E00023680529B8BF05210B4D03EB430C05EB04
:1031F0008C0ECEF80410052AB8BF0522CEF80820A0
:1032000045F82C0001332360B3F5806F01DB002209
:10321000226030BDBC2C0020C42C00207047000070
:10322000F8B5314B1E68F6B9304F3C46304D0FCDE6
:103230000FC42B6823702F4C0FCCC7F81100C7F8B0
:103240001510C7F81920C7F81D30237887F82130EA
:1032500023A3D3E900232849D1E90001FDF7DEFBD0
:1032600000B301261EE0214C244B0FCB84E80F0055
:10327000234D0FCDC4F81100C4F81510C4F819205F
:10328000C4F81D302B7884F821301E4B01221A60BF
:1032900013A3D3E900231849D1E90001FDF7BEFBD0
:1032A00010B900263046F8BD0023164A136010E01E
:1032B000154A02EBC30400200021C4E90001D2E951
:1032C0000045124A02EB0312C2E90045C2E90201BD
:1032D0000133032BECDD0126E4E700BFAFF30080F0
:1032E000666666666666E6BF2C8100203060002058
:1032F00000E6000814E600083881002028E60008EF
:1033000038E60008FC60002098600020B8600020CB
:10331000F8B5274B1E68F6B9264F3C46264D0FCD13
:103320000FC42B682370254C0FCCC7F81100C7F8C9
:103330001510C7F81920C7F81D30237887F82130F9
:1033400019A3D3E900231E49D1E90001FDF766FB6B
:1033500008B301261FE0174DAC461A4C0FCCACE861
:103360000F0023688CF80030174C0FCCC5F8110003
:10337000C5F81510C5F81920C5F81D30134B0122EA
:103380001A6009A3D3E900230D49D1E90001FDF733
:1033900045FB10B900263046F8BD0C4B00221A60E0
:1033A0000126F8E7AFF30080666666666666E6BFEC
:1033B0002C8100203060002000E6000814E60008A0
:1033C000388100204CE6000860E60008FC60002020
:1033D0002DE9F84316461F465B4B1B785B4A126883
:1033E000934216D0594A13609BB1594A1368B3FAF5
:1033F00083F35B091360002B5BD0322211464FF43C
:103400001670FFF7EBFE322211464FF44870FFF7BB
:10341000E5FE4F4B1C68002C69D04E4BD3E9008968
:103420000022002340464946FDF716FB00284DD0F8
:103430004FF001053EA3D3E9002340464946FDF77E
:103440000BFB08B94FF00005EDB2002D58D0324605
:103450003B4640464946FDF76FF800223E4BFDF7DC
:103460006BF83E4DD5E90023FCF7B0FE06460F464B
:10347000C5E9006700223A4BFDF7D0FA60B94FF07A
:1034800001050022374B30463946FDF7E5FA08B909
:103490004FF00005EDB23DBB0022314B30463946BE
:1034A000FDF7BCFA08B100262D4F2C4BC3E900678D
:1034B00026E0322211464FF44870FFF78FFE322289
:1034C00011464FF41670FFF789FEA2E74FF0010591
:1034D00019A3D3E9002340464946FDF79FFA08B9EE
:1034E0004FF00005EDB2B0E700261E4FDDE714A354
:1034F000D3E900231C49D1E90001FDF78FFA98B9FF
:1035000054B1164BD3E900231849194802F010FFB3
:1035100000242046BDE8F883104BD3E90023154969
:10352000134802F005FFF4E70124F2E7AFF300804F
:103530009A9999999999A93F9A9999999999A9BF0D
:10354000666666666666E6BF28810020545F0020D6
:10355000585F0020308100200000F43FB02500209B
:1035600000000840000022403881002070E600087A
:103570004160002080E600082DE9F84F16461F46FE
:10358000514C524B0FCB84E80F00DFF844A1DAF81E
:103590000000FCF767FF00224E4BFDF7F7F8002212
:1035A0004D4BFCF7C9FFFDF761FA02464B4904F1A8
:1035B000110002F0BDFE40A3D3E900233046394696
:1035C000FCF7BAFF464BD3E9008942464B46FCF76D
:1035D000B3FF444ED6E90023FCF7F8FD04460D4640
:1035E000C6E90045DAF80060B6F5AC6F3FDA3E4F49
:1035F00057F82600FCF736FF42464B46FDF7C6F863
:10360000FDF734FA8346731C57F82300B31C57F8B0
:103610002330A3F1960A9630FCF724FF42464B462E
:10362000FDF7B4F8FDF722FA07465046FCF71AFFFB
:1036300042464B46FDF7AAF8FDF718FAB0F100082C
:1036400021DB07EB0800FCF70DFF02460B46204686
:103650002946FDF7F7F9D0B1244B00221A60033652
:103660001B4B1E601F4B00200021C3E9000114A367
:10367000D3E900231E49D1E90001FDF7CFF998B93C
:103680000020BDE8F88F47444FF00008D9E7174BFA
:103690001B68002BEBD1424639465846FFF79EFD8A
:1036A000124B01221A60E2E7094B00221A60012046
:1036B000E7E700BFAFF300800000000000F8914092
:1036C000666666666666E6BF306000208CE60008C7
:1036D000505F002000809540000059409CE60008A3
:1036E00020100020485F002028100020445F0020A8
:1036F00038810020000000002DE9F84316461F46DF
:10370000634B1B78634A1268934216D0614A136078
:103710009BB1614A1368B3FA83F35B091360002B12
:103720005CD0322211464FF41670FFF757FD32225B
:1037300011464FF44870FFF751FD574B1C68002CA1
:103740006AD0564BD3E900890022002340464946FF
:10375000FDF782F900284ED04FF0010544A3D3E9CC
:10376000002340464946FDF777F908B94FF00005B8
:10377000EDB2002D59D032463B4640464946FCF753
:10378000DBFE3DA3D3E90023FCF7D6FE444DD5E98B
:103790000023FCF71BFD06460F46C5E90067002223
:1037A000404BFDF73BF960B94FF0010500223E4B5D
:1037B00030463946FDF750F908B94FF00005EDB233
:1037C0003DBB0022374B30463946FDF727F908B19B
:1037D0000026344F324BC3E9006726E032221146FF
:1037E0004FF44870FFF7FAFC322211464FF416707E
:1037F000FFF7F4FCA1E74FF0010521A3D3E9002373
:1038000040464946FDF70AF908B94FF00005EDB208
:10381000AFE70026244FDDE71BA3D3E900232349AC
:10382000D1E90001FDF7FAF8F8B984B10022204B84
:103830001B49D1E90001FCF77FFE02460B461D49FA
:103840001D4802F075FD00242046BDE8F8830022E3
:10385000174B1349D1E90001FCF76EFE02460B46F7
:103860001649154802F064FDEEE70124ECE700BFBD
:103870009A9999999999A93F333333333333C33F95
:103880009A9999999999A9BF666666666666E6BF30
:1038900028810020405F00203C5F00203081002014
:1038A000201000200000E83F0000F43F3881002095
:1038B00000005940ACE6000841600020BCE600086A
:1038C0002DE9F84F16461F46514DAC46514C0FCCD2
:1038D000ACE80F0023688CF80030DFF83CA1DAF880
:1038E0000000FCF7BFFD00224C4BFCF74FFF00220D
:1038F0004B4BFCF721FEFDF7B9F80246494905F1AB
:10390000110002F015FD3EA3D3E9002330463946ED
:10391000FCF712FE444BD3E9008942464B46FCF7C4
:103920000BFE424ED6E90023FCF750FC04460D4640
:10393000C6E90045DAF8006040F2FA339E423CDC0A
:103940003B4F57F82600FCF78DFD42464B46FCF7EF
:103950001DFFFDF78BF88246731CB21C57F822B08E
:1039600057F82300FCF77EFD42464B46FCF70EFF5E
:10397000FDF77CF807465846FCF774FD42464B4677
:10398000FCF704FFFDF772F8B0F1000821DB07EB4C
:103990000800FCF767FD02460B4620462946FDF766
:1039A00051F8D0B1234B00221A6003361A4B1E6027
:1039B0001E4B00200021C3E9000113A3D3E900231B
:1039C0001D49D1E90001FDF729F898B90020BDE8AB
:1039D000F88F47444FF00008D9E7164B1B68002BBF
:1039E000EBD1424639465046FFF7F8FB114B012216
:1039F0001A60E2E7084B00221A600120E7E700BFE7
:103A00000000000000F89140666666666666E6BFE4
:103A100030600020CCE60008385F00200080954030
:103A2000000059409CE6000828000020305F00207C
:103A300030000020285F00203881002000000000B6
:103A40002DE9F84316461F46634B1B78634A1268FC
:103A5000934216D0614A13609BB1614A1368B3FA6E
:103A600083F35B091360002B5CD0322211464FF4C4
:103A70001670FFF7B3FB322211464FF44870FFF780
:103A8000ADFB574B1C68002C6AD0564BD3E900891C
:103A90000022002340464946FCF7DEFF00284ED0B6
:103AA0004FF0010544A3D3E9002340464946FCF703
:103AB000D3FF08B94FF00005EDB2002D59D03246C2
:103AC0003B4640464946FCF737FD3DA3D3E900237A
:103AD000FCF732FD444DD5E90023FCF777FB0646A1
:103AE0000F46C5E900670022404BFCF797FF60B91D
:103AF0004FF0010500223E4B30463946FCF7ACFF43
:103B000008B94FF00005EDB23DBB0022374B3046FF
:103B10003946FCF783FF08B10026344F324BC3E926
:103B2000006726E0322211464FF44870FFF756FB3B
:103B3000322211464FF41670FFF750FBA1E74FF009
:103B4000010521A3D3E9002340464946FCF766FF5F
:103B500008B94FF00005EDB2AFE70026244FDDE7CE
:103B60001BA3D3E900232349D1E90001FCF756FF49
:103B7000F8B984B10022204B1B49D1E90001FCF7C0
:103B8000DBFC02460B461D491D4802F0D1FB002418
:103B90002046BDE8F8830022174B1349D1E9000104
:103BA000FCF7CAFC02460B461649154802F0C0FB5A
:103BB000EEE70124ECE700BF9A9999999999A93FFA
:103BC000333333333333C33F9A9999999999A9BFC2
:103BD000666666666666E6BF28810020245F002070
:103BE000205F002030810020280000200000E83FF6
:103BF0000000F43F3881002000005940ACE6000886
:103C000041600020BCE600082DE9F04188B00024A6
:103C10000394049405940694079400942E4B1A6B15
:103C200042F004021A631A6B02F004020092009A36
:103C300001941A6B42F001021A631A6B02F001023E
:103C40000192019A02941A6B42F002021A631B6BF2
:103C500003F002030293029B204E2246812130464C
:103C6000FEF710F8DFF87880224640F2E471404613
:103C7000FEF708F81B4F22464FF48F613846FEF7D7
:103C800001F801250395112304930594069403A9D3
:103C90003046FDF70FFF40F2E4730393049505945B
:103CA000069403A94046FDF705FF4FF48F63039385
:103CB00004950594069403A93846FDF7FBFE80237E
:103CC000039304950594069403A93046FDF7F2FE8C
:103CD00008B0BDE8F08100BF003802400008024093
:103CE000000002400004024000B583B000210191B1
:103CF000094B1A6B42F480021A631B6B03F48003B6
:103D00000193019B0A463820FDF79AFC3820FDF705
:103D1000A7FC03B05DF804FB00380240074B1A68AB
:103D2000536A18464BB100235362054A1368516821
:103D30001B1841F100011360516070478881002019
:103D400018810020094B1B68B3F5805F02DB074B2D
:103D500000221A6005490B68054A02F8130002EBBD
:103D600043020120507003440B607047146100202F
:103D70001861002010B50401E4B20C4344F00C00BB
:103D8000FFF7E0FF04F0FB0040F00800FFF7DAFF68
:103D900010BD000030B585B00001C0B28DF80F0035
:103DA00001438DF80F1041F008038DF80F3041F0FA
:103DB0000C018DF80F10104D0124009423460DF1D5
:103DC0000F024E212846FEF79BF92046FDF7ACF87E
:103DD0009DF80F3023F004038DF80F300094234634
:103DE0000DF10F024E212846FEF78AF92046FDF715
:103DF0009BF805B030BD00BF1882002010B500F060
:103E00000F0400210009FFF7B5FF00212046FFF74E
:103E1000B1FF10BD38B5044600F00F0500210009C0
:103E2000FFF7B8FF00212846FFF7B4FF013CE4B2DA
:103E3000012C00D938BD0220FDF776F8FAE710B55D
:103E400000F00F0401210009FFF794FF0121204633
:103E5000FFF790FF10BD08B53220FDF765F800218F
:103E60000320FFF797FF0520FDF75EF800210320F0
:103E7000FFF790FF0120FDF757F800210320FFF71F
:103E800089FF0120FDF750F800210220FFF782FF93
:103E90002820FFF7BFFF0C20FFF7BCFF0620FFF72D
:103EA000B9FF0120FFF7B6FF0220FDF73DF808BD7E
:103EB000184B1B68B3F5805F02DB164B00221A60BB
:103EC000144B1A68144B03EB42035B787BB9013245
:103ED0005342C2F30B01C3F30B0358BF59420E4BBD
:103EE00003EB41035B789BB10A4B1A60704710B536
:103EF00082B0094C04EB42040A23009301232246BA
:103F00004E210648FEF7FCF80023637002B010BD96
:103F1000704700BF10610020186100201882002047
:103F200008B50120FFF76AFF08BD10B5044602E09E
:103F30000134FFF784FF20780028F9D110BD08B5BF
:103F4000012907D00023184460F07F00C0B2FFF7BA
:103F500055FF08BD4023F6E72DE9F84314461D46FA
:103F6000674B1B68674A1668B34251D0644B1E60AA
:103F7000002E6CD0644E3046FEF73EFD08213046E0
:103F8000FEF762FF002639E03046FCF76BFA0022AC
:103F90005E4BFCF7FBFB00225D4BFCF715F98046FE
:103FA000894602460B46FCF7C7FA42464B46FCF7E9
:103FB000C3FA42464B46FCF7BFFA02460B460020C6
:103FC0005349FCF701F90022524BFCF7B5FA0022E5
:103FD000514BFCF7FBF8FCF749FD504B93FBF0F01D
:103FE000494A1368411ED962D16000EBD07040107D
:103FF0000138D8630120FCF797FF01364F2EC3DD4F
:10400000414E08213046FEF797FF3046FEF72AFD65
:10401000434E22462B46D6E90001FCF7D7F8C6E905
:104020000001384B1B681BB900200021C6E90001C4
:1040300000223C4B3A49D1E90001FCF70DFD002874
:1040400055D0394B1A68002A52D0012250E02E4F29
:104050003846FEF7D1FC08213846FEF7F5FE3BE076
:104060003046FCF7FFF90022284BFCF78FFB0022BB
:10407000274BFCF7A9F88046894602460B46FCF719
:104080005BFA42464B46FCF757FA42464B46FCF772
:1040900053FA02460B4600201D49FCF795F8002212
:1040A0001C4BFCF749FA02460B4600201F49FCF75F
:1040B0008BF8FCF7DBFC194B93FBF0F0124A13680A
:1040C000411ED962D16000EBD07040100138D86336
:1040D0000120FCF729FF01364F2EC1DD0A4E0821D1
:1040E0003046FEF729FF3046FEF7BCFC90E7012280
:1040F000D2B201210E48FDF7C5FDBDE8F88300BF2F
:10410000006100202C8100204081002000005440EC
:104110000000F03F00C0824000408F4000093D0099
:104120000861002000000840FC60002000E095408D
:104130000008024038B51A4C402322462021204670
:1041400001F0A2FC174B1870174D40232A4680211E
:10415000204601F099FC154B18704FF4007322466D
:104160008021134801F090FC124B18704FF48073BB
:1041700022464FF48061284601F086FC0E4B1870F1
:1041800000230AE00D4A02EBC302D2E900010C4A07
:1041900002EB0312C2E900010133032BF2DD38BD4B
:1041A00000000240FB60002000040240FA60002092
:1041B00000080240F9600020F860002098600020AC
:1041C000B860002010B5044610461946A31E012B06
:1041D00005D9054B03EB0413C3E9000110BD002210
:1041E000024BFBF7F1FFF4E7B86000200080564077
:1041F0002DE9F84F0F466A4A1368591C1160042BC9
:1042000040F3C68006464FF0000A20E00022654BCE
:1042100020462946FCF720FC08B10024614D624B82
:1042200003EB0A13C3E9024532463B4620462946C2
:10423000FCF782F902460B465C4C04EBCA0440468C
:104240004946FBF7C3FFC4E900010AF1010ABAF1CC
:10425000030F4CDC544B03EB0A1B544B03EBCA0318
:10426000D3E9008942464B46DBE90001FBF7ACFF8E
:1042700049A3D3E90023FCF75FF9DBE902453246A5
:104280003B46FCF759F902460B4620462946FBF708
:104290009DFF04460D46CBE9024532463B46FCF7FE
:1042A0004BF90022424BFCF747F902460B462046E9
:1042B0002946FBF789FF04460D46CBE9024500225B
:1042C000384BFCF7C9FB0028A0D14FF0010B0022AE
:1042D000384B20462946FCF7A1FB08B94FF0000BEC
:1042E0005FFA8BF3002B91D00024324D97E72F4CCF
:1042F00000222C4BD4E90001FCF748FA00222E4B97
:10430000FCF71AF9FCF7B2FB01462C4B187801F0C8
:10431000D9FBD4E90423D4E90201FBF757FF0022BB
:10432000204BFCF733FA0022254BFCF705F9FCF78C
:104330009DFB0146234B187801F0C4FB0022194B6A
:10434000D4E90201FCF722FA00221D4BFCF7F4F835
:10435000FCF78CFB01461C4B187801F0B3FBD4E949
:104360000223D4E90601FBF731FFD4E90423FBF76C
:104370002DFF00220B4BFCF709FA0022134BFCF730
:10438000DBF8FCF773FB0146114B187801F09AFB40
:10439000BDE8F88FAFF300800000000000C052407D
:1043A0009060002000805640B86000209860002097
:1043B00000002C40008056C0000099C0FB60002027
:1043C00000C0A2C0FA600020F960002000C0A24036
:1043D000F8600020000000002DE9F04F83B0824615
:1043E0008B4616461F4602460B46FCF7A5F80446C8
:1043F0000D4632463B4630463946FCF79DF80246AC
:104400000B4620462946FBF7E1FE04460D4608F020
:10441000A9FC0022564BFCF7B9F90022554BFCF7DA
:104420008BF8DDE90C23FBF7D1FE80468946204658
:10443000294608F097FC02460B46CDE90023FCF71D
:104440007BF804460D4642464B4640464946FCF73B
:1044500073F802460B4620462946FBF7B7FE08F0E4
:1044600081FC02460B46FCF767F80022424BFCF742
:1044700063F80022414BFCF789F900223F4BFCF71F
:1044800085F902460B4600203D49FBF79DFE08F0EA
:104490001DF935A3D3E90023FCF778F90022394B45
:1044A000FCF74AF804460D4632463B46504659460C
:1044B00008F034F92CA3D3E90023FCF767F90022B4
:1044C000304BFCF739F882468B4600222A4B2046B7
:1044D0002946FCF731F806460F46DDE90023404641
:1044E0004946FCF753F908F067FC1FA3D3E9002302
:1044F000FCF74CF90022234BFCF71EF802460B4652
:1045000030463946FBF760FE06460F4622462B46EC
:1045100000201C49FBF758FE04460D4632463B4638
:1045200000201849FBF750FE22462B46FBF74CFEB5
:104530008046894632463B460120FFF743FE22462D
:104540002B460220FFF73EFE42464B460320FFF774
:1045500039FE52465B460020FFF734FE03B0BDE84B
:10456000F08F00BFAFF300804AD8124DFB21094005
:1045700000407E40000020400000E03F00002E4050
:104580000000F03F008066402DE9F04F83B0464BBD
:104590001E68FEB9454F3C46454D0FCD0FC42B68F4
:1045A0002370444C0FCCC7F81100C7F81510C7F89A
:1045B0001920C7F81D30237887F8213038A3D3E9B4
:1045C00000233D49D1E90001FCF728FA002849D031
:1045D000012647E00022394BFBF7AEFF80468946B3
:1045E00008F0BEFD82468B46354BD3E900450022DC
:1045F000344B20462946FBF7E9FD06460F46404668
:10460000494608F065FD02460B4620462946FBF761
:1046100093FF02460B4630463946FBF7D7FD064668
:104620000F4622462B4650465946FBF785FF00228F
:10463000254BCDE9002332463B46FFF7CDFE1B4E0E
:104640003446224D0FCD0FC42B68237000237374A2
:1046500013A3D3E900231849D1E90001FCF7DEF9DF
:1046600020B90026304603B0BDE8F08F00240025B5
:1046700022462B460020FFF7A5FD22462B460120AF
:10468000FFF7A0FD0024124D22462B460220FFF723
:1046900099FD22462B460320FFF794FD0126E1E712
:1046A000666666666666E6BF2C8100203060002084
:1046B00000E6000814E60008388100200000F43FFE
:1046C000B02500200000264000001440E0E600086D
:1046D0000080564008B5084B1B6803B108BD064B67
:1046E00001221A60FFF71CFC00210846FFF727FC97
:1046F0000248FFF71AFCF1E778600020F4E60008B2
:1047000030B5084C2368084D03EB430C05EB8C0EC9
:10471000CEF80410CEF8082045F82C0001332360B1
:1047200030BD00BF1C6000205C5F0020084A094BC0
:104730001B7853600023D3601361136000200021B5
:10474000C2E906011362044A1360044A1360704709
:10475000E85C002028810020185D00201C5D0020FE
:104760002DE9F04F85B082468B46CDE90223A04B60
:104770001B78A04A526893424BD09E4A5360002B4C
:1047800042D100229C4B9B49D1E90601FCF764F918
:1047900038B9984B1B68002B27DC0133954A13600E
:1047A00037E00024002522462B460020FFF70AFDB3
:1047B00022462B460120FFF705FD00248F4D22469F
:1047C0002B460220FFF7FEFC22462B460320FFF774
:1047D000F9FC8B490B6801338A4A136000230B6094
:1047E0001360844A13620120C4E0642211464FF42E
:1047F0006170FEF7F3FC7F4AD368B3FA83F35B0979
:10480000D3600023936004E07A4B00200021C3E9C9
:104810000601774B1B789BB1764CDDE90223D4E986
:104820000601FBF7D3FC02460B46C4E9062300222F
:10483000714BFCF711F918B1236A002B00F09D8031
:10484000714ED6E9008942464B4640464946FBF741
:1048500073FE04460D46D6E9026732463B463046B3
:104860003946FBF769FE02460B4620462946FBF710
:10487000ADFC08F077FA04460D460022634BFCF7C6
:10488000EBF8002800F0888022462B464046494637
:10489000FBF77CFF00225D4BFBF74EFEDFF86881E3
:1048A000C8E9000122462B4630463946FBF76EFF29
:1048B0000022564BFBF740FEC8E90201544BD3E9F6
:1048C000002350465946FBF77FFC47A3D3E900235A
:1048D000FCF7C2F868B14E4BC3E900AB454B1B690E
:1048E000002B7CD14B4A464B1B684B494B4801F08F
:1048F0001FFD404BDB68002B40F09C80424CD4E90C
:1049000000670022464BDDE90201FBF715FE8046F9
:104910008946444BD3E90023FBF70EFE02460B46C3
:1049200030463946FBF752FCC4E90001D4E902677E
:104930003D4BD3E9002340464946FBF7FDFD0246C7
:104940000B4630463946FBF741FCC4E90201294BCE
:10495000DB68002B00F0CF80002200232A49C1E948
:104960000423CDE90023D1E90223D1E90001FFF7B7
:1049700033FD002005B0BDE8F08F012222623C2209
:1049800096214FF4AF60FEF729FC3C2296214FF4AC
:104990007A70FEF723FC53E70022244B2046294679
:1049A000FCF73CF8002889D022462B464046494671
:1049B000FBF7ECFE00221D4BFBF7BEFDDFF8488045
:1049C000C8E9000122462B4630463946FBF7DEFE99
:1049D0000022164BFBF7B0FDC8E902016EE7144A4E
:1049E00081E700BFAFF300809A9999999999C93FDF
:1049F00028810020E85C00200000F83F008056403D
:104A0000185D00201C5D00201000002000003C40CC
:104A1000105D002008E7000818E70008416000204A
:104A20000000304038810020308100200000254007
:104A300010E70008344B9D68344BD3E9006701242C
:104A40002FA3D3E9002330463946FBF7E7FF00B92F
:104A50000024A5423FF47BAF2B4B9C6028A3D3E9F5
:104A6000002330463946FBF7EDFF00283FF46FAFD7
:104A7000254B1B6923B3322296214FF4AF60FEF71A
:104A8000ADFB322296214FF4AF60FEF7A7FB204C1E
:104A90002368204DD5E900011F4A02EB4312C2E909
:104AA0000401D5E90201C2E9060101332360164A77
:104AB0001369B3FA83F35B0913610023D36046E7FC
:104AC0003222962140F24C40FEF788FB322296219A
:104AD00040F24C40FEF782FB0D4B1C680D4AD2E9B8
:104AE00000010D4B03EB4413C3E90001D2E90201BD
:104AF000C3E90201DBE70022084B2FE7AFF3008098
:104B0000666666666666E6BFE85C00203081002067
:104B1000185D002010000020205D002000002040D3
:104B200008B501F05DF83C2250214FF49660FEF785
:104B300055FB3C2250214FF4AF60FEF74FFB3C2267
:104B400050214FF4C860FEF749FB0123024A13606D
:104B5000024A1360002008BDD45C0020E05C002005
:104B600008B5FFF7FDFD08BD0020024B1860024BA1
:104B700018607047E05C0020E45C0020000000004A
:104B80002DE9D04306460F4690469946584B1A6881
:104B9000584B1B68C2F102025749584801F0C8FB44
:104BA000574B1C68002C35D1564B1B68002B44D04A
:104BB0004BA3D3E900235449D1E90001FBF72EFFB1
:104BC000002844D1514B1B78514A1268934209D0B6
:104BD0004F4A136033B1464B1B68002B40D0484B03
:104BE00001221A604B4BD3E900673FA3D3E90023AE
:104BF00030463946FBF730FF002838D138A3D3E9D7
:104C0000002330463946FBF709FF00284ED04FF00D
:104C1000FF332DE042464B4630463946FFF7A0FFB2
:104C2000044600283FD042464B4630463946FFF7FF
:104C30009BFF0024324B1C6035E0324B01221A608E
:104C400042464B4630463946FFF76AFFB0E700233D
:104C50002B4A13602B4A136000F0D4FF012422E09A
:104C600042464B4630463946FFF760FDB7E7012321
:104C7000294A12689A4202D0274A1360C3B91C4BD2
:104C80001B6843B3254B1D4E9C46BCE80F00C6F87D
:104C90001100C6F81510C6F81920C6F81D309CF88A
:104CA000003086F821302046BDE8D0832346DFE778
:104CB000322264214FF44870FEF790FA32226421C8
:104CC0004FF49660FEF78AFA094A1368B3FA83F341
:104CD0005B091360D3E7124BD5E700BFAFF3008049
:104CE000666666666666E6BF666666666666E63F32
:104CF000E05C0020080000204CE700083060002045
:104D0000DC5C0020E45C0020388100202881002049
:104D1000D45C002030810020D85C002024E700080B
:104D200038E7000808B5002213491448FFF7E8FCEB
:104D3000002213491348FFF7E3FC002212491348ED
:104D4000FFF7DEFC002212491248FFF7D9FC124A95
:104D500012491348FFF7D4FC124A13491348FFF7CE
:104D6000CFFC134A13491448FFF7CAFC134B1A68C7
:104D7000134B1A6008BD00BF814B000860E70008B4
:104D8000113300086CE700082132000878E70008BA
:104D90001D32000884E70008F9360008793500085C
:104DA0008CE70008413A0008C138000898E700087D
:104DB000D133000889450008A4E700081C600020E2
:104DC000B8250020074B1B785BB9074B1B6803EB2A
:104DD00043039A00054B13445B6813B1014B022255
:104DE0001A707047C55C0020206000205C5F0020C6
:104DF00008B50F4B1B789BB90E4B1A68104418600E
:104E0000002803DB0C4B1B6898420ADB1922502157
:104E1000FA20FEF7E3F919225021FA20FEF7DEF915
:104E200008BD322264214FF4FA70FEF7D7F9F7E794
:104E3000C55C002020600020B825002008B50128AE
:104E400003D0B0F1FF3F20D008BD254B1B78002BCD
:104E5000FAD1234B01221A70322211464FF4FA7014
:104E6000FEF7BCF9322211464FF42F70FEF7B6F967
:104E7000322211464FF46170FEF7B0F9322211462A
:104E800040F24C40FEF7AAF9DEE7154B1B78012BE8
:104E9000DAD1144B1B6803EB4303134A02EB830381
:104EA0009B68002BD0D13222114640F24C40FEF7D5
:104EB00095F9322211464FF46170FEF78FF93222D4
:104EC00011464FF42F70FEF789F9322211464FF444
:104ED000FA70FEF783F9024B00221A70B4E700BFA4
:104EE000C55C0020206000205C5F00200000000006
:104EF0002DE9F04704460D4616461F46B44BD3E94C
:104F00000023FBF761F9ACA3D3E90023FBF7A4FD71
:104F100000284DD1AF4B1B78002B00F08680012B71
:104F200000F0A880022B00F0EA80AB4BD3E90045EB
:104F3000A3A3D3E9002320462946FBF76FFD0028F1
:104F400000F01181A54B1B68012B40F00581A44B9B
:104F5000D3E900459AA3D3E9002320462946FBF76D
:104F60005DFD002800F058819C4B5B68B3F1FF3F6A
:104F700040F019819B4B1B78984A9268934204D069
:104F8000964A9360002B40F06481974B1A68974BC8
:104F90001B689A4200F36081002ACCBF00210121E6
:104FA000002940F05B819A4200F35981531E56E17B
:104FB00000230F2B0FDC8E4AD15C8E4AD25C9142CB
:104FC0002FD18B4A1A44517C8A4A1A44527C91420E
:104FD00029D10133EDE70023002B9BD07C4BC3E9A3
:104FE0000045DFF810A2DFF808825146404601F084
:104FF00009FB08F111090AF11101484601F002FB11
:10500000FEF78EFF00210846FEF799FF4046FEF7A7
:105010008CFF01210020FEF792FF4846FEF785FF36
:1050200078E70123D8E70123D6E7704C226802EB2A
:105030004201714B53F82130013270496D4801F043
:1050400077F92268531C6E4909688B420ADA03EB30
:105050004303694951F8233002326A496A4801F032
:1050600067F962E7684D694C0FCC28606960AA60F7
:10507000EB605AE7DFF88081DFF87091D9F80030F3
:1050800003EB430358F8232061495A4801F050F9D3
:10509000D9F8003003EB430308EB8308D8F8088005
:1050A000B8F1000F23D032463B4620462946C04780
:1050B00001287FF43AAF1922322140F24C40FEF72A
:1050C0008DF8192232214FF46170FEF787F819220A
:1050D00032214FF42F70FEF781F8142232214FF461
:1050E000FA70FEF77BF83B4B00221A701DE7464D25
:1050F000484C0FCC28606960AA60EB6015E73B4B19
:105100001B6803EB43033C4A02EB8303D3F80480A0
:1051100032463B4620462946C04700283FF405AFAB
:105120001922322140F24C40FEF758F81922322160
:105130004FF46170FEF752F8192232214FF42F70AC
:10514000FEF74CF8142232214FF4FA70FEF746F8BD
:10515000204B00221A70E8E60120FFF749FE1F4BA2
:1051600001221A60F3E618A3D3E90023204629465A
:10517000FBF772FC70B1194B1B68B3F1FF3F3FF4B2
:10518000E6AE4FF0FF30FFF733FE144B4FF0FF3227
:105190001A60DCE6114B1B68002B3FF4D8AE0F4BB6
:1051A00000221A60D3E64FF0FF30FFF747FE0B4BAB
:1051B0004FF0FF325A60DDE69A9999999999C93F63
:1051C0009A9999999999E9BF9A9999999999E93FE1
:1051D00028600020C55C002030810020C85C0020D1
:1051E0003881002028810020B82500202060002080
:1051F00054600020306000205C5F0020ACE70008B5
:105200001C600020B8E7000841600020C4E70008E7
:10521000D4E70008E0E7000813A3D3E90023204601
:105220002946FBF719FC58B1114B5B68012B3FF481
:10523000A1AE0120FFF702FE0D4B01225A6099E654
:105240000B4B5B68002B3FF495AE094B00225A6074
:1052500090E6FFF7B7FD98E6D90FA1E60023054ACF
:105260001360BDE8F08700BF9A9999999999E93F31
:10527000C85C002020600020F8B506460F461446A2
:105280001D4600221A4B20462946FBF7E5FBF0B9E4
:105290000022174B1749D1E90001FBF7BFFBB8B952
:1052A000154B1B68BBB9144B01221A60FEF738FE80
:1052B000104E22462B46D6E90001FAF787FFC6E9D1
:1052C0000001FBF72BFE0D4B1B6883420ADBF8BD88
:1052D000FFF700FAECE722462B4630463946FFF747
:1052E00007FEE5E7054B1860FEF7E2FDEFE700BFBC
:1052F0000000F03F886000207C600020806000207B
:1053000008B5FEF7A8FD00F08FFC0B48FDF774FB15
:10531000FEF710FFFFF706FD5A2140F25230FDF76D
:10532000E5FE5A214FF47070FDF7E0FE5A2140F27D
:105330004C40FDF7DBFE08BDD08100202DE9F8438D
:1053400007460E46FBF78EF80022144BFBF71EFAB9
:10535000804689463046FBF785F800220F4BFBF765
:1053600015FA04460D4602460B4640464946FEF7EE
:10537000F3FD22462B4640464946FFF77DFF38465F
:1053800000F07EFC20462946FEF732FF044800F07C
:10539000A9FB3046FDF7D2FEBDE8F88300408F4000
:1053A000D0810020014B01221A707047C45C00209C
:1053B00072B6FEE700B587B000230293039304930F
:1053C0000593009301931448144A026053224260EB
:1053D00083604FF0FF32C260036143618361FDF778
:1053E000A5FB90B94FF48053029302A90A48FDF738
:1053F0009DFC60B900230093019369460648FDF7C0
:10540000DDFD30B907B05DF804FBFFF7D1FFFFF712
:10541000CFFFFFF7CDFF00BFD0810020000001408B
:1054200008B50A480A4B03600A4B43604FF48042B8
:1054300082600023C360026143618361C3610362D0
:10544000FCF780FD00B908BDFFF7B2FF188200200D
:1054500000540040006A180000B585B00023009396
:105460000193029303932648264A02604FF4803248
:105470004260836001220261027680F82030C362BC
:1054800021498162C3600423C36180F830204261F6
:10549000FBF7F8FD50BB0123009302230193052382
:1054A000029369461648FBF7B9FF08BB0423009333
:1054B0000323019369461248FBF7B0FFD0B90023DC
:1054C00000930123019369460D48FBF7A7FF98B9A4
:1054D0000B23009304230193072302936946084892
:1054E000FBF79CFF50B905B05DF804FBFFF760FFC8
:1054F000FFF75EFFFFF75CFFFFF75AFFFFF758FF6C
:10550000CC820020002001400100000F00B58FB0C8
:1055100000230A930B930C930D9308930993019323
:105520000293039304930593069307932048214A1B
:10553000026014224260836041F63F72C2600361E0
:1055400080238361FDF7F2FA38BB4FF480530A934E
:105550000AA91748FDF7EAFB08BB1548FDF712FB3F
:10556000F8B900230893099308A91148FDF726FD0F
:10557000C8B96023019340F69F73029300230393FD
:105580000593082201A90A48FDF756FB68B90848A7
:1055900000F09EFC0FB05DF804FBFFF709FFFFF77A
:1055A00007FFFFF705FFFFF703FFFFF701FF00BF4E
:1055B000408100200004004000B587B00023029322
:1055C0000393049305930093019314484FF0804292
:1055D00002605322426083604FF0FF32C260036179
:1055E0008361FDF7A3FA90B94FF48053029302A9A7
:1055F0000A48FDF79BFB60B90023009301936946BD
:105600000648FDF7DBFC30B907B05DF804FBFFF797
:10561000CFFEFFF7CDFEFFF7CBFE00BF8881002055
:1056200000B595B03022002108A800F093FF0023B8
:105630000393049305930693079301931F4A116CF8
:1056400041F080511164126C02F080520192019A73
:1056500002931B490A6822F4404242F400420A6065
:105660000A6802F440420292029A02220892012140
:105670000B9110210C910E920F9308231093542339
:10568000119312920423139308A8FCF7F5FD80B937
:105690000F23039302210491002305934FF48052BA
:1056A0000692079303A8FDF737F820B915B05DF807
:1056B00004FBFFF77DFEFFF77BFE00BF00380240D2
:1056C00000700040000000002DE9F04F89B0FBF7AA
:1056D000FFFBFFF7A5FFFEF797FAFEF705FBFFF7C5
:1056E00069FEFFF79DFEFFF7B7FEFFF70FFFFFF71D
:1056F00063FF0422AA49AB48FBF7F0FCAA48FDF778
:105700007BF9AA48FDF7E0FCFFF7FAFD4FF0000A2D
:10571000D346F0E0A24D6888A0F50060FAF7A2FE3B
:105720000022A34BFAF708FFA24BC3E90001A888A7
:10573000A0F50060FAF796FE00229D4BFAF7FCFEFA
:105740009D4BC3E900012B88B3F5007F2CBF0023DC
:1057500001239A4A13700136924BDB69B34219D97F
:105760008F4BDA8840F674639A428CBF0122002284
:1057700003D8934B00211960A246A4EB0A03B3F5AA
:10578000FA7FC7DD8E4B1B689342C3D08C4B1A60E7
:10579000A246BFE7874BD3E90067002200233046CB
:1057A0003946FBF759F9002800F0B2800123029333
:1057B000814BD3E900890022002340464946FBF78C
:1057C0004BF9002800F0A880012303930022002356
:1057D00030463946FBF740F9002800F0A1804FF031
:1057E000010569A3D3E9002330463946FBF716F9D2
:1057F00008B94FF00005EDB2002D40F0A680002260
:10580000002330463946FBF727F9002800F0968040
:105810005DA3D3E9002330463946FAF7D5FC5CA3F3
:10582000D3E90023FAF7B2FFCDE90001614BDDE9CE
:105830000012C3E900120022002340464946FBF74C
:105840000BF9002800F086804FF001054EA3D3E944
:10585000002340464946FBF7E1F808B94FF0000540
:10586000EDB2002D40F08C800022002340464946D6
:10587000FBF7F2F800287BD043A3D3E9002340468E
:105880004946FAF7A1FC42A3D3E90023FAF77EFFC9
:1058900006460F46484DC5E90067DDE900010246AE
:1058A0000B46FAF749FE804689460298FAF7DAFD78
:1058B00042464B46FAF740FE3E4BC3E900013246F2
:1058C0003B4630463946FAF737FE06460F46039800
:1058D000FAF7C8FD32463B46FAF72EFEC5E900014D
:1058E000384B00221A705846FDF728FC59462046CE
:1058F000FFF724FDA346FBF711FB0446A0EB0B0BBF
:10590000FEF70CFA2F4B1B78002BECD0002623E778
:105910004FF0FF3302934BE74FF0FF33039355E70C
:105920004FF001051CA3D3E9002330463946FBF7AD
:1059300093F808B94FF00005EDB25DE7049607F162
:1059400000430593DDE9046762E700220023CDE907
:1059500000236BE74FF001050FA3D3E90023404676
:105960004946FBF779F808B94FF00005EDB278E742
:10597000CDF8188009F100430793DDE906897BE73C
:105980000026002786E700BF7B14AE47E17A943FEC
:105990005C8FC2F5285CEF3F7B14AE47E17A94BF81
:1059A00020810020CC8200208881002040810020BE
:1059B000000040BF38810020308100202881002075
:1059C0002C810020C45C002038B504460278134DB9
:1059D000312A14BF0022012210212846FCF752F977
:1059E0006278312A14BF0022012220212846FCF7C8
:1059F00049F9A278312A14BF002201220821284641
:105A0000FCF740F9E278312A14BF002201224FF45A
:105A100080610348FCF736F938BD00BF000402403E
:105A20000000024010B50446124B1B687BB1012BED
:105A300011D0022B13D01048FFF7C6FF0D4B1A6888
:105A400022441A60032A0EDD00221A6010BD0B48A2
:105A5000FFF7BAFFF2E70A48FFF7B6FFEEE709489B
:105A6000FFF7B2FFEAE7002AF0DA024B03221A60DE
:105A7000ECE700BFE483002008E80008F0E7000836
:105A8000F8E7000800E8000870B50C4D2C680C4ED3
:105A900004EB440E06EBCE0C46F83E00ACF80410C6
:105AA000CCF80820ACF80C300023CCF81030CCF83F
:105AB0001430631C2B60E0B270BD00BFE083002097
:105AC00020830020054B1B68984205DA00EB40005C
:105AD000034B03EBC0035961704700BFE083002014
:105AE000208300202DE9F0410546002412E03A4FC2
:105AF00004EB44064FEAC60807EBC6060022B1894C
