:020000040800F2
:100000000080012091540008995300089B53000878
:100010009D5300089F530008A153000800000000F2
:10002000000000000000000000000000A3530008D2
:10003000A553000800000000A7530008A9530008BA
:10004000E1540008E1540008E1540008E1540008BC
:10005000E1540008E1540008E1540008E1540008AC
:10006000E1540008E1540008E1540008E15400089C
:10007000E1540008E1540008E1540008E15400088C
:10008000E1540008E1540008B153000800000000EA
:10009000000000000000000000000000E154000823
:1000A000E1540008E1540008E1540008E15400085C
:1000B000E1540008E1540008E1540008E15400084C
:1000C000E1540008E1540008E1540008E15400083C
:1000D000E1540008E1540008E15400080000000069
:1000E000E1540008E1540008E15400080000000059
:1000F000000000000000000000000000E1540008C3
:1001000000000000E1540008E1540008E154000838
:1001100000000000000000000000000000000000DF
:10012000C1530008E1540008E1540008E1540008FC
:10013000E154000800000000000000000000000082
:10014000000000000000000000000000E154000872
:10015000E1540008E1540008E1540008E1540008AB
:10016000E1540008E1540008000000000000000015
:10017000000000000000000000000000000000007F
:1001800000000000E1540008000000000000000032
:04019000E15400082E
:1001C00081F0004102E000BF83F0004330B54FEA08
:1001D00041044FEA430594EA050F08BF90EA020F75
:1001E0001FBF54EA000C55EA020C7FEA645C7FEA08
:1001F000655C00F0E2804FEA5454D4EB5555B8BF2B
:100200006D420CDD2C4480EA020281EA030382EA9B
:10021000000083EA010180EA020281EA0303362D2D
:1002200088BF30BD11F0004F4FEA01314FF4801C00
:100230004CEA113102D0404261EB410113F0004F12
:100240004FEA03334CEA133302D0524263EB4303C9
:1002500094EA050F00F0A780A4F10104D5F1200E67
:100260000DDB02FA0EFC22FA05F2801841F10001C2
:1002700003FA0EF2801843FA05F359410EE0A5F196
:1002800020050EF1200E012A03FA0EFC28BF4CF0C7
:10029000020C43FA05F3C01851EBE37101F000457D
:1002A00007D54FF0000EDCF1000C7EEB00006EEB8A
:1002B0000101B1F5801F1BD3B1F5001F0CD3490814
:1002C0005FEA30004FEA3C0C04F101044FEA44526B
:1002D00012F5800F80F09A80BCF1004F08BF5FEAF2
:1002E000500C50F1000041EB045141EA050130BDD2
:1002F0005FEA4C0C404141EB0101013C28BFB1F5E4
:10030000801FE9D291F0000F04BF01460020B1FA2E
:1003100081F308BF2033A3F10B03B3F120020CDA01
:100320000C3208DD02F1140CC2F10C0201FA0CF0DF
:1003300021FA02F10CE002F11402D8BFC2F1200C44
:1003400001FA02F120FA0CFCDCBF41EA0C019040FA
:10035000E41AA2BF01EB0451294330BD6FEA040443
:100360001F3C1CDA0C340EDC04F11404C4F120022E
:1003700020FA04F001FA02F340EA030021FA04F340
:1003800045EA030130BDC4F10C04C4F1200220FA97
:1003900002F001FA04F340EA0300294630BD21FAD5
:1003A00004F0294630BD94F0000F83F4801306BF9B
:1003B00081F480110134013D4EE77FEA645C18BF8F
:1003C0007FEA655C29D094EA050F08BF90EA020F26
:1003D00005D054EA000C04BF1946104630BD91EA1E
:1003E000030F1EBF0021002030BD5FEA545C05D121
:1003F0004000494128BF41F0004130BD14F5800460
:100400003CBF01F5801130BD01F0004545F0FE41D3
:1004100041F470014FF0000030BD7FEA645C1ABF08
:10042000194610467FEA655C1CBF0B46024650EA3F
:10043000013406BF52EA033591EA030F41F400216B
:1004400030BD00BF90F0000F04BF0021704730B5F1
:100450004FF4806404F132044FF000054FF00001C6
:1004600050E700BF90F0000F04BF0021704730B587
:100470004FF4806404F1320410F0004548BF40425C
:100480004FF000013EE700BF42004FEAE2014FEAB1
:1004900031014FEA02701FBF12F07F4393F07F4F8C
:1004A00081F06051704732F07F4208BF704793F08F
:1004B0007F4F04BF41F40021704730B54FF46074A2
:1004C00001F0004521F000411CE700BF50EA0102A5
:1004D00008BF704730B54FF000050AE050EA01024E
:1004E00008BF704730B511F0004502D5404261EBBE
:1004F00041014FF4806404F132045FEA915C3FF4FF
:10050000D8AE4FF003025FEADC0C18BF03325FEA9B
:10051000DC0C18BF033202EBDC02C2F1200300FA4C
:1005200003FC20FA02F001FA03FE40EA0E0021FA71
:1005300002F11444BDE600BF70B54FF0FF0C4CF45F
:10054000E06C1CEA11541DBF1CEA135594EA0C0F11
:1005500095EA0C0F00F0DEF82C4481EA030621EA4C
:100560004C5123EA4C5350EA013518BF52EA033587
:1005700041F4801143F4801338D0A0FB02CE4FF039
:100580000005E1FB02E506F00042E0FB03E54FF069
:100590000006E1FB03569CF0000F18BF4EF0010E61
:1005A000A4F1FF04B6F5007F64F5407404D25FEA5D
:1005B0004E0E6D4146EB060642EAC62141EA555110
:1005C0004FEAC52040EA5E504FEACE2EB4F1FD0C52
:1005D00088BFBCF5E06F1ED8BEF1004F08BF5FEAD0
:1005E000500E50F1000041EB045170BD06F0004682
:1005F00046EA010140EA020081EA0301B4EB5C042F
:10060000C2BFD4EB0C0541EA045170BD41F4801126
:100610004FF0000E013C00F3AB8014F1360FDEBF4B
:10062000002001F0004170BDC4F10004203C35DA27
:100630000C341BDC04F11404C4F1200500FA05F3AA
:1006400020FA04F001FA05F240EA020001F000424B
:1006500021F0004110EBD37021FA04F642EB0601C1
:100660005EEA430E08BF20EAD37070BDC4F10C04EB
:10067000C4F1200500FA04F320FA05F001FA04F2AF
:1006800040EA020001F0004110EBD37041F100019B
:100690005EEA430E08BF20EAD37070BDC4F12005A6
:1006A00000FA05F24EEA020E20FA04F301FA05F20E
:1006B00043EA020321FA04F001F0004121FA04F2B6
:1006C00020EA020000EBD3705EEA430E08BF20EA86
:1006D000D37070BD94F0000F0FD101F000464000C0
:1006E00041EB010111F4801F08BF013CF7D041EA42
:1006F000060195F0000F18BF704703F00046520046
:1007000043EB030313F4801F08BF013DF7D043EA16
:100710000603704794EA0C0F0CEA135518BF95EACC
:100720000C0F0CD050EA410618BF52EA4306D1D153
:1007300081EA030101F000414FF0000070BD50EA72
:10074000410606BF1046194652EA430619D094EAFC
:100750000C0F02D150EA013613D195EA0C0F05D1E6
:1007600052EA03361CBF104619460AD181EA03013A
:1007700001F0004141F0FE4141F470014FF00000F2
:1007800070BD41F0FE4141F4780170BD70B54FF08D
:10079000FF0C4CF4E06C1CEA11541DBF1CEA13550D
:1007A00094EA0C0F95EA0C0F00F0A7F8A4EB0504EF
:1007B00081EA030E52EA03354FEA013100F08880E6
:1007C0004FEA03334FF0805545EA131343EA1263AF
:1007D0004FEA022245EA111545EA10654FEA002664
:1007E0000EF000419D4208BF964244F1FD0404F51D
:1007F000407402D25B084FEA3202B61A65EB030579
:100800005B084FEA32024FF480104FF4002CB6EB35
:10081000020E75EB030E22BFB61A754640EA0C00B5
:100820005B084FEA3202B6EB020E75EB030E22BFF5
:10083000B61A754640EA5C005B084FEA3202B6EB36
:10084000020E75EB030E22BFB61A754640EA9C00F5
:100850005B084FEA3202B6EB020E75EB030E22BFC5
:10086000B61A754640EADC0055EA060E18D04FEA83
:10087000051545EA16754FEA06164FEAC30343EA23
:1008800052734FEAC2025FEA1C1CC0D111F4801FF0
:100890000BD141EA00014FF000004FF0004CB6E7E9
:1008A00011F4801F04BF01430020B4F1FD0C88BF88
:1008B000BCF5E06F3FF6AFAEB5EB030C04BFB6EB93
:1008C000020C5FEA500C50F1000041EB045170BD86
:1008D0000EF0004E4EEA113114EB5C04C2BFD4EBB3
:1008E0000C0541EA045170BD41F480114FF0000E37
:1008F000013C90E645EA060E8DE60CEA135594EAB3
:100900000C0F08BF95EA0C0F3FF43BAF94EA0C0FB5
:100910000AD150EA01347FF434AF95EA0C0F7FF42A
:1009200025AF104619462CE795EA0C0F06D152EA7E
:1009300003353FF4FDAE1046194622E750EA410662
:1009400018BF52EA43067FF4C5AE50EA41047FF473
:100950000DAF52EA43057FF4EBAE12E74FF0FF3CD8
:1009600006E000BF4FF0010C02E000BF4FF0010CA9
:100970004DF804CD4FEA410C7FEA6C5C4FEA430C22
:1009800018BF7FEA6C5C1BD001B050EA410C0CBF71
:1009900052EA430C91EA030F02BF90EA020F0020D3
:1009A000704710F1000F91EA030F58BF994208BF3A
:1009B00090422CBFD8176FEAE37040F001007047F7
:1009C0004FEA410C7FEA6C5C02D150EA013C07D14E
:1009D0004FEA430C7FEA6C5CD6D152EA033CD3D099
:1009E0005DF8040B704700BF8446104662468C4693
:1009F0001946634600E000BF01B5FFF7B7FF0028C6
:100A000048BF10F1000F01BD4DF808EDFFF7F4FFEE
:100A10000CBF012000205DF808FB00BF4DF808ED79
:100A2000FFF7EAFF34BF012000205DF808FB00BF9C
:100A30004DF808EDFFF7E0FF94BF012000205DF8BE
:100A400008FB00BF4DF808EDFFF7CEFF94BF012073
:100A500000205DF808FB00BF4DF808EDFFF7C4FF6C
:100A600034BF012000205DF808FB00BF4FEA4102BF
:100A700012F5001215D211D56FF47873B3EB6252F0
:100A800012D94FEAC12343F0004343EA505311F017
:100A9000004F23FA02F018BF404270474FF00000A9
:100AA000704750EA013005D111F0004008BF6FF0E7
:100AB000004070474FF00000704700BF53B94AB97B
:100AC000002908BF00281CBF4FF0FF314FF0FF3056
:100AD00000F00CB8ADF1080C6DE904CE04F002FD95
:100AE000DDF804E0DDE9022304B07047704700BF81
:100AF00001F0FF01102A2BDB10F0070F08D010F8CF
:100B0000013B013A8B422DD010F0070F42B3F6D1D2
:100B1000F0B441EA012141EA014122F007047FF0EB
:100B200000070023F0E80256083C85EA010586EA42
:100B3000010685FA47F5A3FA87F586FA47F6A5FA7E
:100B400087F68EB9EED1F0BC01F0FF0102F007028A
:100B500032B110F8013B013A83EA010313B1F8D135
:100B60000020704701387047002D06BF3546033816
:100B7000073815F0010F07D1013015F4807F02BF4F
:100B8000013015F4C03F0130F0BC0138704700BFA0
:100B90000000000000000000000000000000000055
:100BA0000000000000000000000000000000000045
:100BB0000000000000000000000000000000000035
:100BC00030B490F800F020F007016FF0000C10F046
:100BD000070491F820F040F048804FF000046FF0D7
:100BE0000700D1E9002391F840F000F1080082FAF3
:100BF0004CF2A4FA8CF283FA4CF3A2FA8CF34BBBBE
:100C0000D1E9022382FA4CF200F10800A4FA8CF236
:100C100083FA4CF3A2FA8CF3E3B9D1E9042382FA04
:100C20004CF200F10800A4FA8CF283FA4CF3A2FA19
:100C30008CF37BB9D1E9062301F1200182FA4CF251
:100C400000F10800A4FA8CF283FA4CF3A2FA8CF3B8
:100C5000002BC6D0002A04BF04301A4612BAB2FADA
:100C600082F200EBD20030BC7047D1E9002304F0DF
:100C70000305C4F100004FEAC50514F0040F91F814
:100C800040F00CFA05F562EA05021CBF63EA0503B1
:100C900062464FF00004AAE7844641EA000313F0DD
:100CA00003036DD1403A41D351F8043B40F8043B73
:100CB00051F8043B40F8043B51F8043B40F8043B36
:100CC00051F8043B40F8043B51F8043B40F8043B26
:100CD00051F8043B40F8043B51F8043B40F8043B16
:100CE00051F8043B40F8043B51F8043B40F8043B06
:100CF00051F8043B40F8043B51F8043B40F8043BF6
:100D000051F8043B40F8043B51F8043B40F8043BE5
:100D100051F8043B40F8043B51F8043B40F8043BD5
:100D200051F8043B40F8043B403ABDD2303211D375
:100D300051F8043B40F8043B51F8043B40F8043BB5
:100D400051F8043B40F8043B51F8043B40F8043BA5
:100D5000103AEDD20C3205D351F8043B40F8043B75
:100D6000043AF9D2043208D0D2071CBF11F8013B73
:100D700000F8013B01D30B8803806046704700BF39
:100D8000082A13D38B078DD010F003038AD0C3F148
:100D90000403D21ADB071CBF11F8013B00F8013B2A
:100DA00080D331F8023B20F8023B7BE7043AD9D3E9
:100DB000013A11F8013B00F8013BF9D20B780370BE
:100DC0004B7843708B788370604670474FEA410CD4
:100DD0007FEA6C5C02D150EA013C0AD14FEA430C35
:100DE0007FEA6C5C02D152EA033C02D14FF0000072
:100DF00070474FF0010070470348044B834202D014
:100E0000034B03B118477047542C0020542C00208A
:100E1000000000000548064B1B1AD90F01EBA30187
:100E2000491002D0034B03B118477047542C0020DF
:100E3000542C00200000000010B5064C237843B964
:100E4000FFF7DAFF044B13B10448AFF3008001232E
:100E5000237010BD582C0020000000003CBB00088F
:100E600008B5054B1BB105490548AFF30080BDE847
:100E70000840FFF7CFBF00BF000000005C2C00203F
:100E80003CBB000810B504460E4B1A784FF47A7339
:100E9000B3FBF2F30C4A1068B0FBF3F000F0EEFB8A
:100EA00068B90F2C01D901200AE0002221464FF039
:100EB000FF3000F0C5FB054B1C60002000E0012066
:100EC00010BD00BF000000209C2500200400002071
:100ED00008B50B4B1A6842F400721A601A6842F4A3
:100EE00080621A601A6842F480721A60032000F06F
:100EF00095FB0F20FFF7C6FF04F022F9002008BD84
:100F0000003C0240034A1168034B1B780B441360FA
:100F1000704700BF742C002000000020014B1868AF
:100F2000704700BF742C002038B50446FFF7F6FF69
:100F30000546B4F1FF3F02D0044B1B781C44FFF779
:100F4000EDFF401BA042FAD338BD00BF00000020D7
:100F50004A4B5A6822F440325A605A6841680A4340
:100F60005A600268536823F48073536002685368C0
:100F7000016943EA012353600268536823F0407318
:100F800053600268536881680B435360026893683A
:100F900023F40063936002689368C1680B43936015
:100FA000826A374B9A4257D00268936823F0706385
:100FB000936002689368816A0B4393600268936848
:100FC00023F04053936002689368C16A0B439360B7
:100FD0000268936823F00203936002689368017EBD
:100FE00043EA4103936090F82030002B3FD0026821
:100FF000536843F4006353600268536823F460430A
:10100000536001684B68426A013A43EA42334B60DD
:101010000268D36A23F47003D3620168CB6AC269A1
:10102000013A43EA0253CB620268936823F40073E7
:1010300093600268936890F8301043EA412393600C
:101040000268936823F4806393600268936841693F
:1010500043EA8123936070470268936823F07063CA
:1010600093600268936823F040539360B0E702688E
:10107000536823F400635360CAE700BF00230140B4
:101080000100000F38B310B50446036C43B1236C64
:1010900013F0100F0BD00120002384F83C3010BD5A
:1010A00004F06AF80023636484F83C30EFE7236CB3
:1010B00023F4885323F0020343F002032364204601
:1010C000FFF746FF00206064236C23F0030343F026
:1010D00001032364E0E701207047000010B582B0EF
:1010E00013460022019290F83C20012A00F09480DF
:1010F0000446012280F83C200268906810F0010F3D
:1011000013D1906840F001009060464A1068464A4A
:10111000A2FB0020800C00EB4000019002E001984F
:101120000138019001980028F9D12268906810F4E4
:10113000807F03D0906820F480709060226890686F
:1011400010F0010F5DD0206C20F4E06020F0010071
:1011500040F480702064526812F4806F05D0226CD5
:1011600022F4405242F480522264226C12F4805FD6
:1011700034D0626C22F006026264002284F83C20C3
:10118000A26B2A48D063A26B29481064A26B29483D
:10119000D06422686FF0220010602068426842F03C
:1011A000806242602068826842F4807282602068B7
:1011B0000A4600F14C01A06B00F058FB1E4B5B6827
:1011C00013F01F0F0DD123689A6812F0405F25D1EC
:1011D0009A6842F080429A6000201BE0002262641C
:1011E000CBE72368154A934201D0002012E09A68A9
:1011F00012F0405F14D19A6842F080429A60002059
:1012000008E0236C43F010032364636C43F0010394
:101210006364002002B010BD0220FBE70020F9E764
:101220000020F7E79C25002083DE1B43A91300085C
:1012300043120008931300080023014000200140DE
:10124000704708B5806BFFF7FBFF08BD704770471C
:1012500070B5044603681E685D6816F0020F2FD053
:1012600005F0200262B3026C12F0100F03D1026C81
:1012700042F4007202649A6812F0405F19D1227E33
:10128000BAB9DA6A12F4700F03D09A6812F4806F58
:101290000FD15A6822F020025A60236C23F4807325
:1012A0002364236C13F4805F03D1236C43F00103A8
:1012B0002364204603F000FB23686FF012021A60DB
:1012C00005F0800316F0040F37D0002B35D0236CC7
:1012D00013F0100F03D1236C43F4005323642368ED
:1012E0009A6812F4401F21D19A6B12F4401F03D068
:1012F0009A6812F4806F19D15A6812F4806F15D170
:101300009A6812F0405F11D1227E7AB95A6822F0B1
:1013100080025A60236C23F480532364236C13F4FB
:10132000807F03D1236C43F001032364204600F047
:101330003FF923686FF00C021A6005F0400316F0C5
:10134000010F05D023B123681B6813F0010F06D1EC
:1013500005F0806516F0200F00D065B970BD236CD4
:1013600043F4803323642046FFF770FF23686FF057
:1013700001021A60ECE7636C43F0020363642368C4
:101380006FF020051D602046FFF761FF23681D6098
:10139000E4E708B5806B40230364436C43F0040327
:1013A0004364FFF754FF08BD08B50346806B026C29
:1013B00012F0500F25D1036C43F4007303640368EB
:1013C0009A6812F0405F19D1027EBAB9DA6A12F453
:1013D000700F03D09A6812F4806F0FD15A6822F010
:1013E00020025A60036C23F480730364036C13F4CB
:1013F000805F03D1036C43F00103036403F05CFAE4
:1014000008BD026C12F0100F04D1826BD26C18462A
:101410009047F5E7FFF71BFFF2E7000030B482B01A
:101420000022019290F83C20012A00F0B680034689
:10143000012280F83C200A68092A40D90468E06843
:1014400092B202EB42021E3A4FF0070C0CFA02F283
:1014500020EA0202E2601C68E0680A8802EB4202AD
:101460001E3A8D6805FA02F20243E2604A68062AD3
:101470003CD81C68606B02EB8202053A4FF01F0CEF
:101480000CFA02F220EA020262631C68606B4A688E
:1014900002EB8202053AB1F800C00CFA02F20243F4
:1014A000626318683E4A904250D018683C4A9042A5
:1014B00055D0002083F83C0002B030BC704704686F
:1014C000206992B202EB42024FF0070C0CFA02F2D2
:1014D00020EA020222611C6820690A8802EB4202AB
:1014E0008D6805FA02F202432261BFE70C2A16D882
:1014F0001D68286B02EB8202233A1F2404FA02F2D1
:1015000020EA02022A631D68286B4A6802EB820205
:10151000233A0C8804FA02F202432A63C1E71D68E9
:10152000E86A02EB8202413A1F2404FA02F220EA3E
:101530000202EA621D68E86A4A6802EB8202413AE6
:101540000C8804FA02F20243EA62AAE70A68122A45
:10155000ABD11448426842F480024260A5E70A68B1
:10156000103A012AA5D80F48426842F400024260AE
:101570000A68102A9DD10C4A12680C49A1FB02127C
:10158000920C02EB82025200019202E0019A013AAF
:101590000192019A002AF9D18BE702208CE700BF63
:1015A00000200140002301409C25002083DE1B43D6
:1015B00070470000002808DB0901C9B200F1604053
:1015C00000F5614080F80013704700F00F0009013A
:1015D000C9B2014B1954704714ED00E000B500F09A
:1015E0000700C0F1070CBCF1040F28BF4FF0040C3A
:1015F000031D062B0FD9C31E4FF0FF3E0EFA0CF051
:1016000021EA000199400EFA03FE22EA0E0241EAA5
:1016100002005DF804FB0023EEE70000074AD368F0
:1016200023F4E0631B041B0C000200F4E06003439E
:1016300043F0BF6343F40033D360704700ED00E034
:1016400010B50446054BD868C0F30220FFF7C6FF6B
:1016500001462046FFF7AEFF10BD00BF00ED00E0E1
:10166000002807DB00F01F02400901239340024AD3
:1016700042F82030704700BF00E100E00138B0F1CF
:10168000807F0BD24FF0E0235861054AF02182F8A9
:1016900023100020986107221A61704701207047CB
:1016A00000ED00E030B405682C6824F480242C6040
:1016B000046863608368402B05D003689960036801
:1016C000DA6030BC704703689A600368D960F8E755
:1016D00010B40368D9B210390B4AA2FB01421209B7
:1016E0000A4CA25CC2655F2908D923F47F7323F0FA
:1016F000030304338365806D10BC704723F47F734C
:1017000023F003038365F6E7ABAAAAAA58BB000837
:10171000836A826992B9012B0AD0022B02D00BB1E5
:1017200000207047C36A13F0807F28D100207047E3
:10173000C36AB3F1C07F24D000207047B2F5005FC8
:1017400009D0022B25D9032B25D1C36A13F0807F42
:1017500023D100207047032B03D8DFE803F01404E3
:10176000140A00207047C36A13F0807F0DD1002057
:101770007047C36AB3F1C07F09D0002070470120D1
:1017800070470120704701207047012070470120F9
:10179000704701207047002070470120704700000B
:1017A00070B50446FFF7BAFB002C5BD00546022358
:1017B00084F83530002384F834302268136823F02D
:1017C0000103136023681A6812F0010F0AD0FFF7B3
:1017D000A5FB431B052BF5D920236365032084F863
:1017E000350070BD1A68204911406268A068024344
:1017F000E06802432069024360690243A069024332
:10180000E0690243206A02430A43616A04291ED048
:101810001A602668756925F00705636A1D43042B65
:1018200007D1A36A1D43E36A1BB12046FFF770FF8F
:1018300090B975612046FFF74BFFE26D3F2393405F
:10184000836000206065012384F83530C9E7E16AD0
:10185000206B01430A43DBE740236365012084F8E2
:101860003500BEE70120BCE73F8010F038B50446E4
:10187000856D90F8340001282BD0012084F83400C5
:1018800094F83500C0B2012804D0002384F8343025
:10189000022038BD022084F8350000206065204613
:1018A000FFF700FFE26D3F239340AB6022681368AF
:1018B00043F016031360236C23B12268136843F0CE
:1018C000080313602268136843F0010313600020CB
:1018D000DFE70220DDE70000F0B583B00446002317
:1018E0000193724B1D68724BA3FB0535AD0A876DE2
:1018F0003E68C26D08239340334210D003681A68D3
:1019000012F0040F0BD01A6822F004021A60C26DA4
:1019100008239340BB60436D43F001034365E26DD0
:1019200001239340334209D02268526912F0800F9C
:1019300004D0BB60636D43F002036365E26D042372
:101940009340334209D02268126812F0020F04D08B
:10195000BB60636D43F004036365E26D1023934045
:10196000334224D02268126812F0080F1FD0BB60E7
:1019700023681A6812F4802F0DD01B6813F4002F0F
:1019800004D1236C9BB12046984710E0A36C73B13F
:10199000204698470BE01A6812F4807F03D11A683A
:1019A00022F008021A60236C0BB120469847E26DC2
:1019B00020239340334255D02268126812F0100F52
:1019C00050D0BB6094F83530DBB2052B0ED02368C5
:1019D0001A6812F4802F33D01B6813F4002F2AD119
:1019E000636C002B3ED0204698473BE0226813688A
:1019F00023F0160313602268536923F080035361B8
:101A0000236CA3B12268136823F008031360E26D0E
:101A10003F239340BB60012384F83530002384F8D2
:101A20003430236D002B3FD0204698473CE0A36C18
:101A3000002BE7D1EBE7E36BA3B12046984711E019
:101A40001A6812F4807F09D11A6822F010021A6015
:101A5000012384F83530002384F83430E36B0BB174
:101A600020469847636DFBB1636D13F0010F17D0EB
:101A7000052384F835302268136823F001031360CE
:101A8000019B01330193AB4204D823681B6813F018
:101A9000010FF5D1012384F83530002384F8343068
:101AA000E36C0BB12046984703B0F0BD9C250020A5
:101AB000B5814E1B00230F2B00F2DA8030B583B0C6
:101AC00068E085684FEA430E032404FA0EF425EA21
:101AD0000405CC6804FA0EF42C438460446824EABC
:101AE00002044A68C2F300129A40224342605FE057
:101AF000DC08083450F8242003F00705AD004FF04F
:101B00000F0E0EFA05FE22EA0E0E0A69AA4042EAFC
:101B10000E0240F824205FE0042200E0002202FAD6
:101B20000EF22A430234534D45F82420524A946859
:101B30006FEA0C0224EA0C05D1F804E01EF4801FC1
:101B400001D04CEA04054C4CA560E46802EA0405A7
:101B5000D1F804E01EF4001F01D04CEA0405464C05
:101B6000E560646802EA0405D1F804E01EF4003F71
:101B700001D04CEA0405404C6560246822404D6861
:101B800015F4803F01D04CEA04023B4C2260013343
:101B90000F2B6BD801229A400C6804EA020C32EA3F
:101BA0000404F4D14C6804F00304013C012C88D9EE
:101BB0004A6802F00302032A09D0C4685D000322C8
:101BC000AA4024EA02048A68AA402243C2604A6802
:101BD00002F00302022A8BD004684FEA430E03226C
:101BE00002FA0EF224EA02044A6802F0030202FA40
:101BF0000EF2224302604A6812F4403FC7D000222E
:101C000001921E4A546C44F480445464526C02F4B1
:101C100080420192019A9C08A51C164A52F8255050
:101C200003F0030E4FEA8E0E0F2202FA0EF225EA9F
:101C30000205134A90423FF471AF02F58062904270
:101C40000ED002F5806290420CD002F58062904284
:101C50000AD002F5806290423FF45EAF07225EE751
:101C600001225CE702225AE7032258E703B030BDA5
:101C7000704700BF00380140003C0140003802407E
:101C8000000002400AB18161704709048161704718
:101C900003685A6912F4806F01D1002070476FF415
:101CA00080625A6100230363202280F83D2080F87F
:101CB0003E30026C42F00402026480F83C300120A5
:101CC00070472DE9F04107460D4690461E4624E038
:101CD000FFF724F9069BC01AB04200D8EEB90023E2
:101CE0003B63202287F83D2087F83E303A6C42F073
:101CF00020023A6487F83C3001201EE03B689C6972
:101D000025EA040C1FFA8CFCBCFA8CFC4FEA5C1C24
:101D1000E04511D1B6F1FF3FDAD1C5F30743012BFE
:101D2000ECD13B685B6925EA030C1FFA8CFCBCFA1A
:101D30008CFC4FEA5C1CEBE70020BDE8F0812DE94C
:101D4000F04105460E46174698463DE01A6842F4B3
:101D500000721A602B686FF480625A6100232B6353
:101D6000202285F83D2085F83E302A6C42F004029E
:101D70002A6485F83C30012034E0FFF7CFF8A0EB6F
:101D80000800B84200D8FFB900232B63202285F851
:101D90003D2085F83E302A6C42F020022A6485F806
:101DA0003C3001201EE02B689C6926EA0404A4B2A2
:101DB000003C18BF0124A4B12B685A6912F4806F4B
:101DC000C4D1B7F1FF3FD8D1C6F30743012BEAD105
:101DD0002B685C6926EA0404A4B2003C18BF012405
:101DE000E9E70020BDE8F081F0B583B004460D4678
:101DF00016461F46C36A082B0DD0012B0BD013F5D6
:101E0000803F08D0036B122B0AD10268136843F499
:101E10008073136004E02268136843F480731360D6
:101E20000097334600224FF001112046FFF749FF8B
:101E300080B92369B3F5804F16D1236805F0FE05FC
:101E40001D613B46324613492046FFF778FFF8B93B
:101E500003B0F0BD23681B6813F4807F02D04FF4F9
:101E6000007323640320F3E7EB11226803F00603F9
:101E700043F0F00313613B46324607492046FFF723
:101E80005EFF18B92368EDB21D61DAE70120DFE7D4
:101E90000120DDE7020001000800010070B50446E2
:101EA0000D46164623685B6913F0800F1CD120464F
:101EB000FFF7EEFED0B9B5F1FF3FF3D0FFF72EF8F4
:101EC000801BA84201D8002DECD1002323632022DF
:101ED00084F83D2084F83E30226C42F020022264D7
:101EE00084F83C30012000E0002070BD0120FCE7B8
:101EF00070B504460D46164623685B6913F0040F5F
:101F00001CD12046FFF7C4FED0B9B5F1FF3FF3D096
:101F1000FFF704F8801BA84201D8002DECD1002364
:101F20002363202284F83D2084F83E30226C42F066
:101F30002002226484F83C30012000E0002070BDC3
:101F40000120FCE7002800F0CC8070B5044690F832
:101F50003D30002B77D0242384F83D30226813686D
:101F600023F0010313602268136843F400431360F5
:101F70002268136823F40043136000F083FC626856
:101F80005A4B9A4264D85A4B98428CBF0023012383
:101F9000002B40F0A8805749A1FB00318B0C25682D
:101FA0006A6822F03F0242EA91426A6021680A6A46
:101FB00022F03F0266684D4DAE424FD801331343C5
:101FC0000B622168CA6922F44F4222F0FF02656861
:101FD000464B9D424CD8431E6D00B3FBF5F30133D5
:101FE00040F6FC70034278D0C3F30B031A43CA6176
:101FF00021680B6823F0C003E269206A024313439F
:102000000B6021688B6823F4034323F0FF032269EC
:10201000E068024313438B602168CB6823F0FF0321
:102020006269A06902431343CB602268136843F0DE
:102030000103136000202064202384F83D302063D6
:1020400084F83E0070BD80F83C3003F007F982E769
:10205000294B98428CBF0023012399E74FF49675D2
:1020600005FB03F3254DA5FB03539B090133A6E7AD
:10207000A668BEB9431E05EB450CB3FBFCF3013368
:10208000C3F30B03B3FA83F35B0943BBC6B9431E27
:1020900005EB4505B3FBF5F30133C3F30B0343F441
:1020A0000043A3E7431E05EB850C0CEB8C0CB3FB44
:1020B000FCF30133C3F30B03B3FA83F35B09E4E7E7
:1020C000431E05EB850505EB8505B3FBF5F30133F1
:1020D000C3F30B0343F4404388E7042386E701235B
:1020E00084E7012070470120ACE700BFA086010013
:1020F0007F841E0083DE1B43FF083D00D34D62102A
:102100002DE9F04385B004460F46914698460C9E53
:10211000FEF704FF054694F83D00C0B2202804D025
:102120000227384605B0BDE8F08300951923012247
:102130004F492046FFF7C5FD002840F0928094F8F3
:102140003C30012B00F08F80012384F83C30236861
:102150001A6812F0010F03D11A6842F001021A60E6
:102160002268136823F400631360212384F83D3050
:10217000102384F83E3000232364C4F82490A4F88C
:102180002A80638D23853B4BE3622B4632463946DA
:102190002046FFF729FE0746002866D10023039357
:1021A00023685A6903929B690393039B11E0236C94
:1021B000042B01D00127B4E72268136843F40073AD
:1021C0001360F7E72A4631462046FFF791FE0028C4
:1021D0002ED1238D002B36D02A4631462046FFF7DC
:1021E0005DFE0028E3D1626A236812781A61606A92
:1021F000431C6362618D89B2013989B26185238D87
:10220000013B9BB223852268516911F0040FD9D09C
:10221000002BD7D043781361636A01336362638D07
:102220009BB2013B9BB26385238D013B2385C9E7AC
:10223000236C042B01D0012773E72268136843F451
:1022400000731360F7E72268136843F400731360A8
:10225000202384F83D30002384F83E3084F83C305D
:102260005FE702275DE702275BE7012759E700BF29
:10227000020010000000FFFF002800F0E08170B5B0
:1022800082B00446036813F0010F3BD09F4B9B685C
:1022900003F00C03042B2CD09C4B9B6803F00C0325
:1022A000082B21D06368B3F5803F4FD0B3F5A02F42
:1022B00052D0964B1A6822F480321A601A6822F4BF
:1022C00080221A606368002B50D0FEF727FE054677
:1022D0008E4B1B6813F4003F14D1FEF71FFE401B0A
:1022E0006428F5D90320B1E1884B5B6813F4800FB3
:1022F000D8D0864B1B6813F4003F03D06368002BD3
:1023000000F09F81236813F0020F54D07F4B9B682D
:1023100013F00C0F3ED07D4B9B6803F00C03082B91
:1023200033D0E368002B68D0794B01221A60FEF7A6
:10233000F5FD0546754B1B6813F0020F54D1FEF7EF
:10234000EDFD401B0228F5D903207FE16F4A136899
:1023500043F480331360B5E76C4B1A6842F4802273
:102360001A601A6842F480321A60ABE7FEF7D6FDB5
:102370000546664B1B6813F4003FC3D0FEF7CEFD45
:10238000401B6428F5D9032060E1604B5B6813F4BF
:10239000800FC6D15D4B1B6813F0020F03D0E368BA
:1023A000012B40F05081594A136823F0F80321694A
:1023B00043EAC1031360236813F0080F42D0636936
:1023C0006BB3534B0122C3F8802EFEF7A7FD0546E1
:1023D0004E4B5B6F13F0020F34D1FEF79FFD401B95
:1023E0000228F5D9032031E1484A136823F0F803A5
:1023F000216943EAC1031360DDE7454B00221A60FF
:10240000FEF78CFD0546414B1B6813F0020FD2D03E
:10241000FEF784FD401B0228F5D9032016E13C4B52
:102420000022C3F8802EFEF779FD0546374B5B6F1F
:1024300013F0020F06D0FEF771FD401B0228F5D9FC
:10244000032003E1236813F0040F77D02F4B1B6C9C
:1024500013F0805F33D1002301932C4B1A6C42F0B0
:1024600080521A641B6C03F080530193019B012579
:10247000284B1B6813F4807F23D0A368012B34D032
:10248000052B38D0214B1A6F22F001021A671A6F00
:1024900022F004021A67A368002B3DD0FEF73EFD30
:1024A00006461A4B1B6F13F0020F46D1FEF736FD9E
:1024B000801B41F288339842F3D90320C6E00025FF
:1024C000D6E7144A136843F480731360FEF726FDC1
:1024D0000646104B1B6813F4807FCED1FEF71EFD1D
:1024E000801B0228F5D90320B0E0084A136F43F09F
:1024F00001031367CFE7054B1A6F42F004021A6716
:102500001A6F42F001021A67C5E700BF00380240A7
:102510000000474200700040FEF700FD0646524BA7
:102520001B6F13F0020F08D0FEF7F8FC801B41F27E
:1025300088339842F3D9032088E0EDB9A369002BD2
:1025400000F08380484A926802F00C02082A51D0B9
:10255000022B17D0454B00221A66FEF7DFFC04461B
:10256000414B1B6813F0007F42D0FEF7D7FC001BE5
:102570000228F5D9032069E03B4A136C23F080530D
:102580001364DBE7394B00221A66FEF7C7FC0546E9
:10259000354B1B6813F0007F06D0FEF7BFFC401BD5
:1025A0000228F5D9032051E0E369226A1343626AE5
:1025B00043EA8213A26A5208013A43EA0243E26AFA
:1025C00043EA0263284A5360284B01221A66FEF749
:1025D000A5FC0446244B1B6813F0007F06D1FEF7D0
:1025E0009DFC001B0228F5D903202FE000202DE0E0
:1025F00000202BE0012B2BD01B4B5B6803F48001E8
:10260000E269914226D103F03F02216A8A4223D136
:10261000616A47F6C0721A40B2EB811F1ED103F403
:102620004031A26A5208013AB1EB024F18D103F0CF
:102630007063E26AB3EB026F14D1002006E0012060
:102640007047012002E0012000E0002002B070BDD0
:102650000120FBE70120F9E70120F7E70120F5E77A
:102660000120F3E70120F1E7003802400000474273
:1026700008B5264B9B6803F00C03042B41D0082BB4
:1026800041D1224B5A6802F03F025B6813F4800F7D
:1026900012D01E4B5968C1F388111D480023A1FBBD
:1026A0000001FEF70BFA194B5B68C3F301430133DA
:1026B0005B00B0FBF3F027E0144B5868C0F38810C0
:1026C0004FEA401CBCEB000C6EEB0E0E4FEA8E1373
:1026D00043EA9C634FEA8C11B1EB0C0163EB0E03F0
:1026E000DB0043EA5173C90011EB000C43F1000316
:1026F000990200234FEA8C2041EA9C51FEF7DEF953
:10270000D1E7034800E0034808BD00BF003802409D
:1027100040787D010024F400002800F09B8070B513
:102720000D4604464F4B1B6803F007038B4208D24B
:10273000CBB24C4A1370136803F007038B4240F08E
:102740008B80236813F0020F17D013F0040F04D00E
:10275000454A936843F4E0539360236813F0080FED
:1027600004D0414A936843F4604393603E4A9368BF
:1027700023F0F003A1680B439360236813F0010F6B
:1027800032D06368012B21D09A1E012A25D9364AFE
:10279000126812F0020F61D033498A6822F00302F6
:1027A00013438B60FEF7BAFB06462F4B9B6803F082
:1027B0000C036268B3EB820F16D0FEF7AFFB801BF1
:1027C00041F288339842F0D9032042E0264A126849
:1027D00012F4003FE0D101203BE0234A126812F0DE
:1027E000007FD9D1012034E01E4B1B6803F00703A2
:1027F000AB4207D9EAB21B4B1A701B6803F0070300
:10280000AB422DD1236813F0040F06D0164A93680B
:1028100023F4E053E1680B439360236813F0080F3F
:1028200007D0114A936823F46043216943EAC10346
:102830009360FFF71DFF0C4B9B68C3F303130B4A18
:10284000D35CD8400A4B18600A4B1868FEF71AFB95
:10285000002070BD012070470120FAE70120F8E751
:102860000120F6E7003C024000380240A4BC00080A
:102870009C25002004000020014B1868704700BF11
:102880009C25002008B5FFF7F7FF044B9B68C3F3B6
:102890008223034AD35CD84008BD00BF0038024001
:1028A0009CBC000830B4036A23F001030362026A8F
:1028B0004568836923F073030C681C4322F002020D
:1028C0008B6813430B4A904206D0456084614A6886
:1028D0004263036230BC704723F00803CA681A439E
:1028E00022F0040325F440754A692A438D69154393
:1028F000EBE700BF0000014030B4036A23F48073AB
:102900000362036A4468C26922F073020D681543CA
:1029100023F400738A6843EA02230D4A904206D0EA
:102920004460C5614A68C263036230BC704723F4E7
:102930000063CA6843EA022323F4806324F440540A
:102940004A6944EA02148A6944EA0214E8E700BFCB
:102950000000014030B4036A23F480530362036A29
:102960004468C26922F4E6420D6842EA052223F473
:1029700000538D6843EA0533074DA84206D04460F2
:10298000C2614A680264036230BC704724F4804428
:102990004D6944EA8514F2E70000014010B4036A6F
:1029A000046A24F001040462846924F0F00C4CEA07
:1029B000021223F00A030B438261036210BC7047CA
:1029C00010B4036A23F0100303628469036A24F4D9
:1029D000704C4CEA023223F0A00343EA01138261F7
:1029E000036210BC7047836823F070030B4343F00D
:1029F000070383607047000090F83D30DBB2012B85
:102A00002AD1022380F83D300368154A934218D03A
:102A1000B3F1804F15D0A2F57C42934211D002F55C
:102A2000806293420DD002F58062934209D002F594
:102A30009A32934205D01A6842F001021A600020CF
:102A400070479A6802F00702062A07D01A6842F017
:102A500001021A6000207047012070470020704773
:102A6000000001400368196A41F21112114208D1B5
:102A7000196A40F24442114203D11A6822F001025D
:102A80001A60012380F83D30002070477047000035
:102A90000368254A90420ED0B0F1804F0BD0A2F5CA
:102AA0007C42904207D002F58062904203D002F54A
:102AB0008062904203D123F070034A6813431A4A9C
:102AC00090421AD0B0F1804F17D0A2F57C429042CC
:102AD00013D002F5806290420FD002F580629042DE
:102AE0000BD002F59A32904207D002F580629042F4
:102AF00003D002F58062904203D123F44073CA6888
:102B0000134323F080034A69134303608B68C36255
:102B10000B688362044B984202D0012343617047E3
:102B20000B690363F9E700BF0000014040B310B533
:102B3000044690F83D30F3B1022384F83D3021463D
:102B400051F8040BFFF7A4FF012384F8463084F802
:102B50003E3084F83F3084F8403084F8413084F8C7
:102B6000423084F8433084F8443084F8453084F8A7
:102B70003D30002010BD80F83C3002F0A7FBDBE7C1
:102B80000120704740B310B5044690F83D30F3B1D2
:102B9000022384F83D30214651F8040BFFF778FFFB
:102BA000012384F8463084F83E3084F83F3084F8BE
:102BB000403084F8413084F8423084F8433084F85F
:102BC000443084F8453084F83D30002010BD80F852
:102BD0003C30FFF75BFFDBE70120704730B4036A4E
:102BE00023F010030362036A4468826922F4E64218
:102BF0000D6842EA052223F020038D6843EA05139D
:102C00000C4DA84206D0446082614A688263036228
:102C100030BC704723F08003CD6843EA051323F0EE
:102C2000400324F440644D6944EA85048D6944EA14
:102C30008504E8E70000014038B590F83C30012BEE
:102C400066D004460D46012380F83C300C2A5AD841
:102C5000DFE802F0075959591B5959593059595948
:102C600044000068FFF71EFE2268936943F00803E2
:102C700093612268936923F0040393612268936946
:102C800029690B43936100203EE00068FFF7A6FF2F
:102C90002268936943F4006393612268936923F483
:102CA0008063936122689369296943EA01239361F0
:102CB000002029E00068FFF71FFE2268D36943F077
:102CC0000803D3612268D36923F00403D361226827
:102CD000D36929690B43D361002015E00068FFF731
:102CE00039FE2268D36943F40063D3612268D36953
:102CF00023F48063D3612268D369296943EA0123FD
:102D0000D361002000E00120002384F83C3038BD6E
:102D10000220FCE710B4846824F47F4C42EA0322CA
:102D20000A4342EA0C02826010BC704790F83C30C3
:102D3000012B78D010B50446012380F83C300223E3
:102D400080F83D300268936823F47F4323F07703D3
:102D500093600B68602B4CD029D8402B54D00CD9F1
:102D6000502B22D1CA6849680068FFF717FE50212E
:102D70002068FFF738FE002005E0202B0DD009D990
:102D8000302B0AD00120012384F83D30002384F841
:102D90003C3010BD0BB1102B05D119462068FFF750
:102DA00022FE0020EFE70120EDE70120EBE7B3F57D
:102DB000805F34D0B3F5005F0CD1CB684A68896876
:102DC0000068FFF7A7FF2268936843F4804393608D
:102DD0000020D8E7702B24D1CB684A688968006846
:102DE000FFF798FF2268936843F077039360002011
:102DF000C9E7CA6849680068FFF7E2FD60212068FA
:102E0000FFF7F1FD0020BEE7CA6849680068FFF7D8
:102E1000C5FD40212068FFF7E6FD0020B3E7002054
:102E2000B1E70120AFE70220704701F01F014FF02A
:102E3000010C0CFA01FC036A23EA0C030362036A27
:102E40008A4013430362704710B5044608460029C0
:102E500032D194F83E30DBB2013B18BF0123002B86
:102E600063D1002841D1022384F83E30012201467B
:102E70002068FFF7DAFF23682E4A934245D0236883
:102E80002C4A934246D0B3F1804F43D0A2F57C4206
:102E900093423FD002F5806293423BD002F58062BC
:102EA000934237D002F59A32934233D01A6842F0F7
:102EB00001021A60002037E0042908D008290DD04B
:102EC00094F84130DBB2013B18BF0123C7E794F807
:102ED0003F30DBB2013B18BF0123C0E794F840301C
:102EE000DBB2013B18BF0123B9E7042805D008284D
:102EF00007D0022384F84130B8E7022384F83F303A
:102F0000B4E7022384F84030B0E75A6C42F4004240
:102F10005A64B4E79A6802F00702062A07D01A68D2
:102F200042F001021A60002010BD0120FCE70020E1
:102F3000FAE700BF0000014038B504460D46002204
:102F40000068FFF772FF23681B4A934214D023687E
:102F5000196A41F21112114208D1196A40F2444231
:102F6000114203D11A6822F001021A609DB90123AF
:102F700084F83E30002038BD196A41F21112114226
:102F8000E5D1196A40F244421142E0D15A6C22F470
:102F900000425A64DBE7042D05D0082D07D0012339
:102FA00084F84130E6E7012384F83F30E2E701236B
:102FB00084F84030DEE700BF0000014090F83C207C
:102FC000012A34D010B40346012280F83C200222AA
:102FD00080F83D2002685068946820F0700C086802
:102FE00040EA0C0050601A681248824212D0B2F1D6
:102FF000804F0FD0A0F57C4082420BD000F580605E
:10300000824207D000F58060824203D000F59A30FA
:10301000824204D124F08004496821439160012256
:1030200083F83D20002083F83C0010BC704702204C
:10303000704700BF0000014038B51F4B1B6883423A
:1030400009D004461C4B186030B91C4B1B68D3B127
:103050001A4B1B681BBB38BD194D08212868FFF7A8
:103060006BFF184B93FBF4F3286801685A1ECA6281
:10307000C26003EBD3735B100268013BD36308218A
:10308000FFF7E2FEE4E70E4C08212068FFF754FF4B
:103090002068FFF7E7FC094B01221A60DBE7074BCA
:1030A00000221A60064C2068FFF7A6FC0821206861
:1030B000FFF7CAFECFE700BF802C00207C2C002049
:1030C000782C002000093D0008B5054B1860FFF77B
:1030D00093FC044B00221A60034B01221A6008BDC6
:1030E000782C0020802C00207C2C002070B5064617
:1030F0000D46104C2068FFF77FFC08212068FFF781
:10310000A3FE0D4890FBF6F022681168431ECB62C7
:10311000D36000EBD0735B101268013BD363284689
:10312000FDF702FF08212068FFF706FF2068FFF780
:1031300099FC70BD782C002000093D002DE9F0417C
:10314000234B1B68234A1468A3423CD0054604EB7A
:103150004402214B03EB82039B68002B0BDC04EB46
:1031600044021D4B03EB82035B68002B1EDC013421
:10317000184B1C6008E01446174A02EB84041B1A23
:10318000A3600020FFF758FF124B1B68B3F5806F58
:1031900002DB104B00221A600D4B1B68B3F5806FE9
:1031A00002DB0B4B00221A60BDE8F0810A4E06EBF1
:1031B000820856F82200FFF73FFFD8F804305B1B67
:1031C000C8F80430E0E70020FFF736FFDCE700BF77
:1031D000842C0020882C00208C2C002030B50D4C35
:1031E00023680529B8BF05210B4D03EB430C05EB04
:1031F0008C0ECEF80410052AB8BF0522CEF80820A0
:1032000045F82C0001332360B3F5806F01DB002209
:10321000226030BD842C00208C2C002070470120BF
:1032200070477047704700002DE9F84316461F4667
:10323000594B1B78594A1268934216D0574A13606B
:103240009BB1574A1368B3FA83F35B091360002BF1
:1032500057D0322211464FF41670FFF7BFFF3222CB
:1032600011464FF44870FFF7B9FF4D4B1C68002C16
:1032700065D04C4BD3E900890022002340464946E3
:10328000FDF7EAFB002849D04FF001053CA3D3E944
:10329000002340464946FDF7DFFB08B94FF0000523
:1032A000EDB2002D54D032463B4640464946FDF72C
:1032B00043F93D4DD5E90023FCF788FF06460F464C
:1032C000C5E900670022394BFDF7A8FB60B94FF054
:1032D00001050022364B30463946FDF7BDFB08B9E3
:1032E0004FF00005EDB23DBB0022304B3046394671
:1032F000FDF794FB08B100262C4F2B4BC3E9006768
:1033000026E0322211464FF44870FFF767FF322261
:1033100011464FF41670FFF761FFA6E74FF0010565
:1033200019A3D3E9002340464946FDF777FB08B9C6
:103330004FF00005EDB2B4E700261D4FDDE714A302
:10334000D3E900231B49D1E90001FDF767FB98B9D8
:1033500054B1154BD3E900231749184802F020FA5D
:1033600000242046BDE8F8830F4BD3E9002314491D
:10337000124802F015FAF4E70124F2E7AFF30080F7
:103380009A9999999999A93F9A9999999999A9BFBF
:10339000666666666666E6BF987E0020CC5C0020A6
:1033A000D05C0020A07E002090250020000010406E
:1033B00000002040A87E002060BB0008B95D00200E
:1033C00070BB0008000000002DE9F84F16461F46AC
:1033D000514C524B0FCB84E80F00DFF844A1DAF8D0
:1033E0000000FDF73FF800224E4BFDF7CFF9002219
:1033F0004D4BFDF7A1F8FDF739FB02464B4904F1AF
:10340000110002F0CDF940A3D3E90023304639463C
:10341000FDF792F8464BD3E9008942464B46FDF74B
:103420008BF8444ED6E90023FCF7D0FE04460D4647
:10343000C6E90045DAF80060B6F5AC6F3FDA3E4FFA
:1034400057F82600FDF70EF842464B46FDF79EF969
:10345000FDF70CFB8346731C57F82300B31C57F889
:103460002330A3F1960A9630FCF7FCFF42464B4608
:10347000FDF78CF9FDF7FAFA07465046FCF7F2FF24
:1034800042464B46FDF782F9FDF7F0FAB0F100082D
:1034900021DB07EB0800FCF7E5FF02460B46204660
:1034A0002946FDF7CFFAD0B1244B00221A6003362B
:1034B0001B4B1E601F4B00200021C3E9000114A319
:1034C000D3E900231E49D1E90001FDF7A7FA98B915
:1034D0000020BDE8F88F47444FF00008D9E7174BAC
:1034E0001B68002BEBD1424639465846FFF776FE63
:1034F000124B01221A60E2E7094B00221A600120F8
:10350000E7E700BFAFF300800000000000F8914043
:10351000666666666666E6BFA85D00207CBB00083E
:10352000C85C002000809540000059408CBB00081A
:1035300000100020C05C002008100020BC5C0020AF
:10354000A87E0020000000002DE9F84316461F4623
:10355000634B1B78634A1268934216D0614A13602A
:103560009BB1614A1368B3FA83F35B091360002BC4
:103570005CD0322211464FF41670FFF72FFE322234
:1035800011464FF44870FFF729FE574B1C68002C7A
:103590006AD0564BD3E900890022002340464946B1
:1035A000FDF75AFA00284ED04FF0010544A3D3E9A5
:1035B000002340464946FDF74FFA08B94FF0000591
:1035C000EDB2002D59D032463B4640464946FCF705
:1035D000B3FF3DA3D3E90023FCF7AEFF444DD5E98B
:1035E0000023FCF7F3FD06460F46C5E900670022FD
:1035F000404BFDF713FA60B94FF0010500223E4B36
:1036000030463946FDF728FA08B94FF00005EDB20B
:103610003DBB0022374B30463946FDF7FFF908B174
:103620000026344F324BC3E9006726E032221146B0
:103630004FF44870FFF7D2FD322211464FF4167056
:10364000FFF7CCFDA1E74FF0010521A3D3E900234B
:1036500040464946FDF7E2F908B94FF00005EDB2E2
:10366000AFE70026244FDDE71BA3D3E9002323495E
:10367000D1E90001FDF7D2F9F8B984B10022204B5D
:103680001B49D1E90001FCF757FF02460B461D49D3
:103690001D4802F085F800242046BDE8F88300228A
:1036A000174B1349D1E90001FCF746FF02460B46D0
:1036B0001649154802F074F8EEE70124ECE700BF64
:1036C0009A9999999999A93F333333333333C33F47
:1036D0009A9999999999A9BF666666666666E6BFE2
:1036E000987E0020B85C0020B45C0020A07E002002
:1036F000001000200000E83F0000F43FA87E0020FA
:10370000000059409CBB0008B95D0020ACBB00081C
:103710002DE9F84F16461F46514DAC46514C0FCC83
:10372000ACE80F0023688CF80030DFF83CA1DAF831
:103730000000FCF797FE00224C4BFDF727F8002213
:103740004B4BFCF7F9FEFDF791F90246494905F1AB
:10375000110002F025F83EA3D3E900233046394694
:10376000FCF7EAFE444BD3E9008942464B46FCF79E
:10377000E3FE424ED6E90023FCF728FD04460D4641
:10378000C6E90045DAF8006040F2FA339E423CDCBC
:103790003B4F57F82600FCF765FE42464B46FCF7C8
:1037A000F5FFFDF763F98246731CB21C57F822B08F
:1037B00057F82300FCF756FE42464B46FCF7E6FF5F
:1037C000FDF754F907465846FCF74CFE42464B4677
:1037D000FCF7DCFFFDF74AF9B0F1000821DB07EB4D
:1037E0000800FCF73FFE02460B4620462946FDF73F
:1037F00029F9D0B1234B00221A6003361A4B1E6000
:103800001E4B00200021C3E9000113A3D3E90023CC
:103810001D49D1E90001FDF701F998B90020BDE883
:10382000F88F47444FF00008D9E7164B1B68002B70
:10383000EBD1424639465046FFF7D0FC114B0122EE
:103840001A60E2E7084B00221A600120E7E700BF98
:103850000000000000F89140666666666666E6BF96
:10386000A85D0020BCBB0008B05C00200080954033
:10387000000059408CBB000808000020A85C002014
:1038800010000020A45C0020A87E002000000000A2
:103890002DE9F84316461F46634B1B78634A1268AE
:1038A000934216D0614A13609BB1614A1368B3FA20
:1038B00083F35B091360002B5CD0322211464FF476
:1038C0001670FFF78BFC322211464FF44870FFF759
:1038D00085FC574B1C68002C6AD0564BD3E90089F5
:1038E0000022002340464946FDF7B6F800284ED096
:1038F0004FF0010544A3D3E9002340464946FDF7B4
:10390000ABF808B94FF00005EDB2002D59D03246A2
:103910003B4640464946FCF70FFE3DA3D3E9002352
:10392000FCF70AFE444DD5E90023FCF74FFC0646A0
:103930000F46C5E900670022404BFDF76FF860B9FC
:103940004FF0010500223E4B30463946FDF784F822
:1039500008B94FF00005EDB23DBB0022374B3046B1
:103960003946FDF75BF808B10026344F324BC3E906
:10397000006726E0322211464FF44870FFF72EFC14
:10398000322211464FF41670FFF728FCA1E74FF0E2
:10399000010521A3D3E9002340464946FDF73EF83F
:1039A00008B94FF00005EDB2AFE70026244FDDE780
:1039B0001BA3D3E900232349D1E90001FDF72EF829
:1039C000F8B984B10022204B1B49D1E90001FCF772
:1039D000B3FD02460B461D491D4801F0E1FE0024DF
:1039E0002046BDE8F8830022174B1349D1E90001B6
:1039F000FCF7A2FD02460B461649154801F0D0FE21
:103A0000EEE70124ECE700BF9A9999999999A93FAB
:103A1000333333333333C33F9A9999999999A9BF73
:103A2000666666666666E6BF987E0020A05C00203B
:103A30009C5C0020A07E0020080000200000E83FE1
:103A40000000F43FA87E0020000059409CBB000805
:103A5000B95D0020ACBB00082DE9F04188B000241E
:103A60000394049405940694079400942E4B1A6BC7
:103A700042F004021A631A6B02F004020092009AE8
:103A800001941A6B42F001021A631A6B02F00102F0
:103A90000192019A02941A6B42F002021A631B6BA4
:103AA00003F002030293029B204E224681213046FE
:103AB000FEF7E8F8DFF87880224640F2E4714046ED
:103AC000FEF7E0F81B4F22464FF48F613846FEF7B1
:103AD000D9F801250395112304930594069403A9AD
:103AE0003046FDF7E7FF40F2E47303930495059435
:103AF000069403A94046FDF7DDFF4FF48F6303935F
:103B000004950594069403A93846FDF7D3FF802356
:103B1000039304950594069403A93046FDF7CAFF64
:103B200008B0BDE8F08100BF003802400008024044
:103B3000000002400004024000B583B00021019162
:103B4000094B1A6B42F480021A631B6B03F4800367
:103B50000193019B0A463820FDF772FD3820FDF7DE
:103B60007FFD03B05DF804FB00380240074B1A6884
:103B7000536A18464BB100235362054A13685168D3
:103B80001B1841F10001136051607047F87E00205E
:103B9000887E0020094B1B68B3F5805F02DB074B72
:103BA00000221A6005490B68054A02F8130002EB6F
:103BB00043020120507003440B607047845E002074
:103BC000885E002010B50401E4B20C4344F00C0000
:103BD000FFF7E0FF04F0FB0040F00800FFF7DAFF1A
:103BE00010BD000030B585B00001C0B28DF80F00E7
:103BF00001438DF80F1041F008038DF80F3041F0AC
:103C00000C018DF80F10104D0124009423460DF186
:103C10000F024E212846FEF773FA2046FDF784F97D
:103C20009DF80F3023F004038DF80F3000942346E5
:103C30000DF10F024E212846FEF762FA2046FDF7ED
:103C400073F905B030BD00BF887F002010B500F0CB
:103C50000F0400210009FFF7B5FF00212046FFF700
:103C6000B1FF10BD38B5044600F00F050021000972
:103C7000FFF7B8FF00212846FFF7B4FF013CE4B28C
:103C8000012C00D938BD0220FDF74EF9FAE710B536
:103C900000F00F0401210009FFF794FF01212046E5
:103CA000FFF790FF10BD08B53220FDF73DF9002168
:103CB0000320FFF797FF0520FDF736F900210320C9
:103CC000FFF790FF0120FDF72FF900210320FFF7F8
:103CD00089FF0120FDF728F900210220FFF782FF6C
:103CE0002820FFF7BFFF0C20FFF7BCFF0620FFF7DF
:103CF000B9FF0120FFF7B6FF0220FDF715F908BD57
:103D0000184B1B68B3F5805F02DB164B00221A606C
:103D1000144B1A68144B03EB42035B787BB90132F6
:103D20005342C2F30B01C3F30B0358BF59420E4B6E
:103D300003EB41035B789BB10A4B1A60704710B5E7
:103D400082B0094C04EB42040A230093012322466B
:103D50004E210648FEF7D4F90023637002B010BD6F
:103D6000704700BF805E0020885E0020887F0020B2
:103D700008B50120FFF76AFF08BD10B5044602E050
:103D80000134FFF784FF20780028F9D110BD08B571
:103D9000012907D00023184460F07F00C0B2FFF76C
:103DA00055FF08BD4023F6E72DE9F84314461D46AC
:103DB000654B1B68654A1668B34251D0624B1E6062
:103DC000002E71D0624E3046FEF716FE08213046B6
:103DD000FFF73AF8002639E03046FCF743FB0022B3
:103DE0005C4BFCF7D3FC00225B4BFCF7EDF9804603
:103DF000894602460B46FCF79FFB42464B46FCF7C2
:103E00009BFB42464B46FCF797FB02460B460020C5
:103E10005149FCF7D9F90022504BFCF78DFB0022E9
:103E20004F4BFCF7D3F9FCF721FE4E4B93FBF0F020
:103E3000474A1368411ED962D16000EBD070401030
:103E40000138D8630120FDF76FF801364F2EC3DD2E
:103E50003F4E08213046FFF76FF83046FEF702FE6E
:103E6000414E22462B46D6E90001FCF7AFF9C6E9E0
:103E70000001364B1B681BB900200021C6E9000178
:103E80004FF001040022394B3749D1E90001FCF71A
:103E9000C5FD08B94FF0000404F0010201213448C7
:103EA000FDF7F0FEBDE8F883294F3846FEF7A4FD84
:103EB00008213846FEF7C8FF3BE03046FCF7D2FA4F
:103EC0000022244BFCF762FC0022234BFCF77CF918
:103ED0008046894602460B46FCF72EFB42464B467F
:103EE000FCF72AFB42464B46FCF726FB02460B46F4
:103EF00000201949FCF768F90022184BFCF71CFB5D
:103F000002460B4600201B49FCF75EF9FCF7AEFDAC
:103F1000144B93FBF0F00E4A1368411ED962D16036
:103F200000EBD07040100138D8630120FCF7FCFF93
:103F300001364F2EC1DD064E08213046FEF7FCFF4C
:103F40003046FEF78FFD8BE7745E00209C7E0020DC
:103F5000B07E0020000054400000F03F00C08240CE
:103F600000408F4000093D00785E002000000840BE
:103F70000008024000E0954038B51A4C4023224624
:103F80002021204601F008F8174B1870174D4023E8
:103F90002A468021204600F0FFFF154B18704FF491
:103FA000007322468021134800F0F6FF124B187070
:103FB0004FF4807322464FF48061284600F0ECFFF6
:103FC0000E4B187000230AE00D4A02EBC302D2E93F
:103FD00000010C4A02EB0312C2E900010133032B7A
:103FE000F2DD38BD00000240735E00200004024094
:103FF000725E002000080240715E0020705E0020AA
:10400000105E0020305E00202DE9F84F0F466A4A0E
:104010001368591C1160042B40F3C68006464FF00C
:10402000000A20E00022654B20462946FCF714FDDB
:1040300008B10024614D624B03EB0A13C3E902454A
:1040400032463B4620462946FCF776FA02460B46A6
:104050005C4C04EBCA0440464946FCF7B7F8C4E997
:1040600000010AF1010ABAF1030F4CDC544B03EBD7
:104070000A1B544B03EBCA03D3E9008942464B4663
:10408000DBE90001FCF7A0F849A3D3E90023FCF722
:1040900053FADBE9024532463B46FCF74DFA02464D
:1040A0000B4620462946FCF791F804460D46CBE91D
:1040B000024532463B46FCF73FFA0022424BFCF7F2
:1040C0003BFA02460B4620462946FCF77DF804469B
:1040D0000D46CBE902450022384BFCF7BDFC002819
:1040E000A0D14FF0010B0022384B20462946FCF7A7
:1040F00095FC08B94FF0000B5FFA8BF3002B91D0C1
:104100000024324D97E72F4C00222C4BD4E90001BC
:10411000FCF73CFB00222E4BFCF70EFAFCF7A6FC4A
:1041200001462C4B187800F055FFD4E90423D4E95C
:104130000201FCF74BF80022204BFCF727FB002282
:10414000254BFCF7F9F9FCF791FC0146234B187855
:1041500000F040FF0022194BD4E90201FCF716FBE6
:1041600000221D4BFCF7E8F9FCF780FC01461C4BD4
:10417000187800F02FFFD4E90223D4E90601FCF7F8
:1041800025F8D4E90423FCF721F800220B4BFCF7B7
:10419000FDFA0022134BFCF7CFF9FCF767FC014650
:1041A000114B187800F016FFBDE8F88FAFF30080D0
:1041B0000000000000C05240085E00200080564011
:1041C000305E0020105E002000002C40008056C0B1
:1041D000000099C0735E002000C0A2C0725E002083
:1041E000715E002000C0A240705E002008B5084B40
:1041F0001B6803B108BD064B01221A60FFF7B8FD2A
:1042000000210846FFF7C3FD0248FFF7B6FDF1E7BE
:10421000F05D0020D0BB000830B5084C2368084D85
:1042200003EB430C05EB8C0ECEF80410CEF80820FF
:1042300045F82C000133236030BD00BF945D0020A1
:10424000D45C002008B5002211461348FFF7E4FFB4
:10425000002211461148FFF7DFFF114A11491248A9
:10426000FFF7DAFF002211491148FFF7D5FF114A85
:1042700011491248FFF7D0FF114A12491248FFF7BF
:10428000CBFF124A12491348FFF7C6FF124B1A68B8
:10429000124B1A6008BD00BFE4BB0008F0BB000869
:1042A0002532000823320008FCBB00081D3200083C
:1042B00008BC000849350008C933000810BC0008D4
:1042C00091380008113700081CBC0008293200088A
:1042D0001F32000828BC0008945D002098250020AB
:1042E000074B1B785BB9074B1B6803EB43039A0032
:1042F000054B13445B6813B1014B02221A707047DF
:104300008D5C0020985D0020D45C002008B50F4B28
:104310001B789BB90E4B1A6810441860002803DB09
:104320000C4B1B6898420ADB19225021FA20FEF739
:1043300055FF19225021FA20FEF750FF08BD322206
:1043400064214FF4FA70FEF749FFF7E78D5C002017
:10435000985D00209825002008B5012803D0B0F111
:10436000FF3F20D008BD254B1B78002BFAD1234BF3
:1043700001221A70322211464FF4FA70FEF72EFF16
:10438000322211464FF42F70FEF728FF32221146D9
:104390004FF46170FEF722FF3222114640F24C408A
:1043A000FEF71CFFDEE7154B1B78012BDAD1144B0F
:1043B0001B6803EB4303134A02EB83039B68002B48
:1043C000D0D13222114640F24C40FEF707FF322294
:1043D00011464FF46170FEF701FF322211464FF48F
:1043E0002F70FEF7FBFE322211464FF4FA70FEF7F3
:1043F000F5FE024B00221A70B4E700BF8D5C00206E
:10440000985D0020D45C00202DE9F04704460D465D
:1044100016461F46B44BD3E90023FBF7D5FEACA3E9
:10442000D3E90023FCF718FB00284DD1AF4B1B78D4
:10443000002B00F08680012B00F0A880022B00F0FA
:10444000EA80AB4BD3E90045A3A3D3E90023204680
:104450002946FCF7E3FA002800F01181A54B1B6800
:10446000012B40F00581A44BD3E900459AA3D3E981
:10447000002320462946FCF7D1FA002800F0588195
:104480009C4B5B68B3F1FF3F40F019819B4B1B785D
:10449000984A9268934204D0964A9360002B40F069
:1044A0006481974B1A68974B1B689A4200F36081AE
:1044B000002ACCBF00210121002940F05B819A42F3
:1044C00000F35981531E56E100230F2B0FDC8E4A57
:1044D000D15C8E4AD25C91422FD18B4A1A44517CD6
:1044E0008A4A1A44527C914229D10133EDE70023D4
:1044F000002B9BD07C4BC3E90045DFF810A2DFF80E
:1045000008825146404601F0B5FA08F111090AF156
:104510001101484601F0AEFAFFF72AFC00210846D7
:10452000FFF735FC4046FFF728FC01210020FFF78C
:104530002EFC4846FFF721FC78E70123D8E701234A
:10454000D6E7704C226802EB4201714B53F82130E0
:10455000013270496D4801F023F92268531C6E49FD
:1045600009688B420ADA03EB4303694951F82330A7
:1045700002326A496A4801F013F962E7684D694CF2
:104580000FCC28606960AA60EB605AE7DFF8808191
:10459000DFF87091D9F8003003EB430358F823207B
:1045A00061495A4801F0FCF8D9F8003003EB4303A5
:1045B00008EB8308D8F80880B8F1000F23D0324602
:1045C0003B4620462946C04701287FF43AAF1922CE
:1045D000322140F24C40FEF701FE192232214FF405
:1045E0006170FEF7FBFD192232214FF42F70FEF7A8
:1045F000F5FD142232214FF4FA70FEF7EFFD3B4B2C
:1046000000221A701DE7464D484C0FCC28606960A7
:10461000AA60EB6015E73B4B1B6803EB43033C4A86
:1046200002EB8303D3F8048032463B4620462946FA
:10463000C04700283FF405AF1922322140F24C4018
:10464000FEF7CCFD192232214FF46170FEF7C6FD52
:10465000192232214FF42F70FEF7C0FD14223221AF
:104660004FF4FA70FEF7BAFD204B00221A70E8E60C
:104670000120FFF74BFE1F4B01221A60F3E618A33F
:10468000D3E9002320462946FCF7E6F970B1194B1F
:104690001B68B3F1FF3F3FF4E6AE4FF0FF30FFF78A
:1046A00035FE144B4FF0FF321A60DCE6114B1B68ED
:1046B000002B3FF4D8AE0F4B00221A60D3E64FF028
:1046C000FF30FFF749FE0B4B4FF0FF325A60DDE63B
:1046D0009A9999999999C93F9A9999999999E9BFFC
:1046E0009A9999999999E93FA05D00208D5C0020E5
:1046F000A07E0020905C0020A87E0020987E0020F4
:1047000098250020985D0020CC5D0020A85D002049
:10471000D45C002030BC0008945D00203CBC000844
:10472000B95D002048BC000858BC000864BC000803
:1047300013A3D3E9002320462946FCF78DF958B18D
:10474000114B5B68012B3FF4A1AE0120FFF704FE83
:104750000D4B01225A6099E60B4B5B68002B3FF42E
:1047600095AE094B00225A6090E6FFF7B9FD98E636
:10477000D90FA1E60023054A1360BDE8F08700BF0A
:104780009A9999999999E93F905C0020985D002049
:10479000F8B506460F4614461D4600221A4B204621
:1047A0002946FCF759F9F0B90022174B1749D1E90E
:1047B0000001FCF733F9B8B9154B1B68BBB9144BB2
:1047C00001221A60FFF7D4FA104E22462B46D6E992
:1047D0000001FBF7FBFCC6E90001FCF79FFB0D4B5A
:1047E0001B6883420ADBF8BDFFF700FDECE72246B9
:1047F0002B4630463946FFF707FEE5E7054B1860C4
:10480000FFF77EFAEFE700BF0000F03F005E0020F8
:10481000F45D0020F85D002008B5FFF744FA0B486E
:10482000FEF7EAF8FFF7A8FBFFF70CFD5A2140F26C
:104830005230FEF75BFC5A214FF47070FEF756FCC5
:104840005A2140F24C40FEF751FC08BD407F002049
:104850002DE9F84307460E46FBF704FE0022144BF1
:10486000FBF794FF804689463046FBF7FBFD0022AC
:104870000F4BFBF78BFF04460D4602460B464046A6
:104880004946FFF791FA22462B4640464946FFF734
:104890007FFF384600F02CFC20462946FFF7B4FB8A
:1048A000044800F0A7FB3046FEF748FCBDE8F8835B
:1048B00000408F40407F0020014B01221A7070475A
:1048C0008C5C002072B6FEE700B587B0002302932F
:1048D000039304930593009301931448144A0260D0
:1048E0005322426083604FF0FF32C2600361436134
:1048F0008361FEF71BF990B94FF48053029302A92C
:104900000A48FEF713FA60B9002300930193694641
:104910000648FEF753FB30B907B05DF804FBFFF71C
:10492000D1FFFFF7CFFFFFF7CDFF00BF407F002093
:104930000000014008B50A480A4B03600A4B436077
:104940004FF4804282600023C3600261436183614F
:10495000C3610362FDF7F6FA00B908BDFFF7B2FFC5
:10496000887F002000540040006A180000B585B020
:10497000002300930193029303932648264A026082
:104980004FF480324260836001220261027680F837
:104990002030C36221498162C3600423C36180F86F
:1049A00030204261FCF76EFB50BB012300930223D1
:1049B00001930523029369461648FCF72FFD08BBB7
:1049C000042300930323019369461248FCF726FD54
:1049D000D0B9002300930123019369460D48FCF7E9
:1049E0001DFD98B90B230093042301930723029321
:1049F00069460848FCF712FD50B905B05DF804FBA4
:104A0000FFF760FFFFF75EFFFFF75CFFFFF75AFF5E
:104A1000FFF758FF3C800020002001400100000FFC
:104A200000B58FB000230A930B930C930D9308935A
:104A300009930193029303930493059306930793B9
:104A40002048214A026014224260836041F63F728E
:104A5000C260036180238361FEF768F838BB4FF4BE
:104A600080530A930AA91748FEF760F908BB154856
:104A7000FEF788F8F8B900230893099308A91148AC
:104A8000FEF79CFAC8B96023019340F69F73029326
:104A9000002303930593082201A90A48FEF7CCF8E6
:104AA00068B9084800F04CFC0FB05DF804FBFFF754
:104AB00009FFFFF707FFFFF705FFFFF703FFFFF70A
:104AC00001FF00BFB07E00200004004000B587B0A9
:104AD00000230293039304930593009301931448D6
:104AE0004FF0804202605322426083604FF0FF32F9
:104AF000C26003618361FEF719F890B94FF48053E7
:104B0000029302A90A48FEF711F960B90023009345
:104B1000019369460648FEF751FA30B907B05DF8CF
:104B200004FBFFF7CFFEFFF7CDFEFFF7CBFE00BF84
:104B3000F87E002000B595B03022002108A800F0D2
:104B400041FF002303930493059306930793019376
:104B50001F4A116C41F080511164126C02F08052B6
:104B60000192019A02931B490A6822F4404242F4DE
:104B700000420A600A6802F440420292029A02224B
:104B8000089201210B9110210C910E920F93082392
:104B900010935423119312920423139308A8FDF742
:104BA0006BFB80B90F23039302210491002305932B
:104BB0004FF480520692079303A8FDF7ADFD20B98C
:104BC00015B05DF804FBFFF77DFEFFF77BFE00BF2D
:104BD00000380240007000402DE9F04F89B0FCF72A
:104BE00077F9FFF7A7FFFEF737FFFEF7A5FFFFF7FF
:104BF0006BFEFFF79FFEFFF7B9FEFFF711FFFFF710
:104C000065FF0422AA49AB48FCF768FAAA48FDF7F9
:104C1000F3FEAA48FEF758FAFFF7FEFD4FF0000A30
:104C2000D346F0E0A24D6888A0F50060FBF71AFCBF
:104C30000022A34BFBF780FCA24BC3E90001A8882C
:104C4000A0F50060FBF70EFC00229D4BFBF774FC07
:104C50009D4BC3E900012B88B3F5007F2CBF0023D7
:104C600001239A4A13700136924BDB69B34219D97A
:104C70008F4BDA8840F674639A428CBF012200227F
:104C800003D8934B00211960A246A4EB0A03B3F5A5
:104C9000FA7FC7DD8E4B1B689342C3D08C4B1A60E2
:104CA000A246BFE7874BD3E90067002200233046C6
:104CB0003946FBF7D1FE002800F0B28001230293B1
:104CC000814BD3E900890022002340464946FBF787
:104CD000C3FE002800F0A8800123039300220023D4
:104CE00030463946FBF7B8FE002800F0A1804FF0AF
:104CF000010569A3D3E9002330463946FBF78EFE50
:104D000008B94FF00005EDB2002D40F0A68000225A
:104D1000002330463946FBF79FFE002800F09680BE
:104D20005DA3D3E9002330463946FBF74DFA5CA377
:104D3000D3E90023FBF72AFDCDE90001614BDDE952
:104D40000012C3E900120022002340464946FBF747
:104D500083FE002800F086804FF001054EA3D3E9C2
:104D6000002340464946FBF759FE08B94FF00005BD
:104D7000EDB2002D40F08C800022002340464946D1
:104D8000FBF76AFE00287BD043A3D3E9002340460B
:104D90004946FBF719FA42A3D3E90023FBF7F6FCD7
:104DA00006460F46484DC5E90067DDE900010246A9
:104DB0000B46FBF7C1FB804689460298FBF752FB86
:104DC00042464B46FBF7B8FB3E4BC3E90001324677
:104DD0003B4630463946FBF7AFFB06460F46039885
:104DE000FBF740FB32463B46FBF7A6FBC5E900015B
:104DF000384B00221A705846FEF7A0F95946204653
:104E0000FFF726FDA346FCF789F80446A0EB0B0B41
:104E1000FEF7ACFE2F4B1B78002BECD0002623E7CF
:104E20004FF0FF3302934BE74FF0FF33039355E707
:104E30004FF001051CA3D3E9002330463946FBF7A8
:104E40000BFE08B94FF00005EDB25DE7049607F1DF
:104E500000430593DDE9046762E700220023CDE902
:104E600000236BE74FF001050FA3D3E90023404671
:104E70004946FBF7F1FD08B94FF00005EDB278E7C0
:104E8000CDF8188009F100430793DDE906897BE737
:104E90000026002786E700BF7B14AE47E17A943FE7
:104EA0005C8FC2F5285CEF3F7B14AE47E17A94BF7C
:104EB000907E00203C800020F87E0020B07E002004
:104EC000000040BFA87E0020A07E0020987E002029
:104ED0009C7E00208C5C002038B504460278134D7F
:104EE000312A14BF0022012210212846FCF7CAFEF5
:104EF0006278312A14BF0022012220212846FCF7C3
:104F0000C1FEA278312A14BF0022012208212846BE
:104F1000FCF7B8FEE278312A14BF002201224FF4D8
:104F200080610348FCF7AEFE38BD00BF00040240BC
:104F30000000024010B50446124B1B687BB1012BE8
:104F400011D0022B13D01048FFF7C6FF0D4B1A6883
:104F500022441A60032A0EDD00221A6010BD0B489D
:104F6000FFF7BAFFF2E70A48FFF7B6FFEEE7094896
:104F7000FFF7B2FFEAE7002AF0DA024B03221A60D9
:104F8000ECE700BF548100208CBC000874BC000812
:104F90007CBC000884BC000870B50C4D2C680C4E1D
:104FA00004EB440E06EBCE0C46F83E00ACF80410C1
:104FB000CCF80820ACF80C300023CCF81030CCF83A
:104FC0001430631C2B60E0B270BD00BF5081002024
:104FD00090800020054B1B68984205DA00EB4000EA
:104FE000034B03EBC0035961704700BF50810020A1
:104FF000908000202DE9F0410546002412E03A4F50
:1050000004EB44064FEAC60807EBC6060022B18946
:10501000B068FCF737FE0022B18857F80800FCF7AB
:1050200031FE0134314B1B68A3421DDD04EB440209
:105030002D4B03EBC2035A691B699A42DFDC9A428B
:10504000EFDA294F04EB44064FEAC60807EBC60621
:105050000122B189B068FCF715FE0022B18857F82B
:105060000800FCF70FFEDCE72B6800225A622B6871
:105070005B6A632BFBD900240EE01B4B04EB44005E
:1050800003EBC0060122B18853F83000FCF7FAFDAB
:105090003369013333610134144B1B68A34219DDBA
:1050A00004EB4402104B03EBC2035A691B699A429A
:1050B000E3DC9A42EFDA0C4B04EB440003EBC0064E
:1050C0000122B18853F83000FCF7DCFD3369013B65
:1050D0003361E0E72B6800225A622B685B6A632B1E
:1050E000FBD9BDE8F08100BF9080002050810020F6
:1050F00008B5104B1B68C31A012B0FDD0D4B186050
:105100000D4B1A685B689A4209DC9A420EDA013B41
:10511000094A53604FF0FF30FFF70CFF08BD013321
:10512000054A53600120FFF705FFF7E70348FFF743
:10513000D3FEF3E7848000208880002094BC000820
:1051400082B0002100910B4B5A6C42F480425A64A9
:105150005A6C02F480420092009A01911A6C42F05B
:1051600080521A641B6C03F080530193019B02B0C0
:10517000704700BF0038024070B588B00023039329
:105180000493059306930793026803F1804303F5A4
:1051900090339A4201D008B070BD044600250095B6
:1051A00003F58C335A6C42F480725A645A6C02F4E0
:1051B00080720092009A01951A6B42F004021A6301
:1051C0001A6B02F004020192019A02951A6B42F0E6
:1051D00001021A631B6B03F001030293029B02237B
:1051E00003930326049603A91848FCF763FC1323D2
:1051F00003930496059503A91548FCF75BFC154835
:10520000154B036045608560C5604FF480630361A2
:105210004FF4006343614FF4005383614FF4807394
:10522000C36105624562FCF7BBFA58B9094BA36339
:105230009C63002201211220FCF702FA1220FCF7E5
:105240000FFAA8E7FFF73EFBF0E700BF00080240B7
:1052500000000240DC7F00201064024030B589B0BD
:105260000023039304930593069307930268144B5A
:105270009A4201D009B030BD00250195114C236B35
:1052800043F002032363236B03F002030193019BAA
:105290004FF44073039312230493032306930423D0
:1052A000079303A90848FCF705FC0295236C43F417
:1052B00000132364236C03F400130293029BD9E7C9
:1052C00000540040003802400004024084B00368EB
:1052D000184A934207D0B3F1804F11D0164A934237
:1052E0001BD004B0704700230193144B5A6C42F05A
:1052F00001025A645B6C03F001030193019BF0E728
:10530000002302930D4B1A6C42F001021A641B6CCD
:1053100003F001030293029BE3E700230393074B8F
:105320001A6C42F002021A641B6C03F0020303932E
:10533000039BD6E700000140000400400038024013
:1053400000B587B000230193029303930493059360
:1053500002680E4B9A4202D007B05DF804FB0023AE
:1053600000930B4B1A6B42F002021A631B6B03F0A3
:1053700002030093009B01230193022302930593F0
:1053800001A90448FCF796FBE6E700BF00040040D3
:105390000038024000040240FEE7FEE7FEE7FEE7B9
:1053A000FEE770477047704708B5FBF7ABFD08BDD7
:1053B00008B50248FBF74CFF08BD00BF3C80002049
:1053C00008B50248FCF788FA08BD00BFDC7F002062
:1053D0000120704708B500F047FB162303604FF02B
:1053E000FF3008BD08B54FF0FF31FFF7F3FFFEE7D0
:1053F00070B50C461646002506E0AFF30080214646
:1054000001F8010B01350C46B542F6DB304670BDA4
:1054100070B50C461646002504E014F8010BAFF3F6
:1054200000800135B542F8DB304670BD4FF0FF30EB
:1054300070474FF400534B600020704701207047C5
:105440000020704710B503460C4A0D490D4800680E
:1054500040B10C4800680344521A934206D8094AE6
:10546000136010BD0748084C0460F2E700F0FCFA36
:105470000C2303604FF0FF30F3E700BF00800120F2
:105480000004000058810020708400207047000054
:10549000DFF834D00D480E490E4A002302E0D458FC
:1054A000C4500433C4188C42F9D30B4A0B4C00236C
:1054B00001E013600432A242FBD3FFF7E7FF00F0E4
:1054C00037FBFFF789FB70470080012000000020B8
:1054D000542C0020C4C00008582C002070840020E8
:1054E000FEE700002DE9F047089D0C46002B4ED149
:1054F00094468C458646B2FA82F262D94AB1C2F12C
:105500002003914020FA03F30CFA02FC194300FA3D
:1055100002FE4FEA1C471FFA8CF6B1FBF7F44FEA84
:105520001E4307FB141143EA014304FB06F19942B1
:105530000AD91CEB030304F1FF3080F01281994279
:1055400040F20F81023C6344591A1FFA8EF3B1FBFB
:10555000F7F007FB101143EA014300FB06F69E42F9
:105560000AD91CEB030300F1FF3180F0FC809E425E
:1055700040F2F980634402389B1B40EA044000215A
:105580001DB1D3400022C5E90032BDE8F0878B424F
:1055900005D90DB1C5E9000100210846F5E7B3FAC8
:1055A00083F1002946D1A34202D39042C0F0F0809B
:1055B000861A64EB03030120002DE6D0C5E90063E1
:1055C000E3E7002A40F09080A1EB0C044FEA1C486E
:1055D0001FFA8CF70121B4FBF8F64FEA1E4308FBD3
:1055E000164443EA044307FB06F0984208D91CEB33
:1055F000030306F1FF3402D2984200F2CD80264622
:105600001C1A1FFA8EF3B4FBF8F008FB104443EAAF
:10561000044300FB07F79F4208D91CEB030300F18A
:10562000FF3402D29F4200F2B0802046DB1B40EAEA
:105630000640A5E7C1F120068B4022FA06F71F437A
:1056400020FA06FC04FA01F343EA0C03F44000FAE2
:1056500001F8380C4FEA1349B4FBF0FE1FFA87FC3F
:1056600000FB1E4449EA04440EFB0CF9A14502FA72
:1056700001F20AD93C190EF1FF3A80F08480A1456D
:1056800040F28180AEF1020E3C44A4EB09041FFA03
:1056900083F9B4FBF0F300FB134449EA044403FB31
:1056A0000CFCA44507D93C1903F1FF3067D2A4458F
:1056B00065D9023B3C4443EA0E40A0FB0293A4EBB5
:1056C0000C049C42CE469C4651D34ED055B1B8EB0B
:1056D0000E0364EB0C0404FA06F6CB401E43CC40E8
:1056E000C5E90064002150E7C2F1200320FA03F16C
:1056F0000CFA02FC24FA03F394400C434FEA1C48D2
:1057000000FA02FE1FFA8CF7B3FBF8F008FB103129
:10571000230C43EA014300FB07F1994208D91CEB33
:10572000030300F1FF362CD299422AD90238634490
:105730005B1AA4B2B3FBF8F108FB113344EA03444B
:1057400001FB07F3A34208D91CEB040401F1FF3667
:1057500013D2A34211D902396444E41A41EA004148
:1057600039E70446F0E6084606E7C845AED2B9EB8D
:10577000020E63EB070C0138A8E73146EDE703465C
:1057800099E73046D4E7D6467FE7634402384DE7D1
:105790000646234608460FE7023E634430E700BF53
:1057A0000EB410B59DB06FF000411FAB049107918E
:1057B000094953F8042B02900690084C086801939D
:1057C00002A9059400F0AEFC029B00221A701DB0E5
:1057D000BDE8104003B07047AC2500200802FFFF71
:1057E000024A0349034800F0C9B800BFA0250020C1
:1057F000D57C0008B02500200C4B4168994210B5BB
:10580000044601D002F066FAA168094B994202D021
:10581000204602F05FFAE168064B994204D0204628
:10582000BDE8104002F056BA10BD00BF5C810020F8
:10583000C48100202C8200202DE9F843314C324BEA
:105840003248DFF8CC90DFF8CC80334F1860002569
:1058500029460423082204F15C00304EE360C4E9C9
:105860000055C4E90455A5606566A56100F0AAF875
:1058700004F15800C4E90749C4E90987E66200F069
:105880007FF92946264B6367082204F1C400C4E966
:105890001A55C4E91E552567C4F8CC50C4F8805089
:1058A00000F090F804F1680304F1C000C4F88430FB
:1058B000C4E92298C4E9247600F062F9194BC4F8CF
:1058C000DC30294604F596700822C4E93455C4E951
:1058D0003855C4F8D850C4F83451C4F8E85000F032
:1058E00071F804F1D003C4E93D87C4F8F09004F5E1
:1058F0009470C4F8FC60C4F8EC30BDE8F84300F0E4
:105900003FB900BF5C81002094820020E15700086D
:10591000117F0008357F0008757F0008997F000817
:10592000090001001200020010B504460A4800F008
:105930002BF9636B23B9094B094A1B68626323B1D6
:10594000BDE81040044800F021B9FFF775FFBDE83D
:105950001040014800F01AB9A08200209482002073
:10596000F9570008014800F00FB900BFA0820020DD
:10597000014800F00BB900BFA08200202DE9F843D8
:1059800080460F4616464FF00009D6E90154013D06
:1059900011D4A389012B05F1FF3508D9B4F90E30D4
:1059A0000133214603D04046B84749EA00096B1C41
:1059B00004F16804EDD13668002EE6D14846BDE812
:1059C000F88300BF830730B547D0541E002A3ED06D
:1059D000CAB2034601E0013C39D303F8012B9D070D
:1059E000F9D1032C2CD9CDB205EB05250F2C05EBF5
:1059F000054535D9A4F1100222F00F0C03F1100E69
:105A0000E6444FEA121C1A46156055609560D56051
:105A100010327245F8D10CF1010214F00C0F03EBB7
:105A2000021204F00F0C13D0ACF1040323F00303B3
:105A30000433134442F8045B9A42FBD10CF0030494
:105A40002CB1C9B21C4403F8011B9C42FBD130BDF0
:105A500064461346002CF4D1F9E703461446C0E728
:105A60001A46A446E0E700BF014B1868704700BF24
:105A7000AC25002080EA0102844612F0030F4FD1CA
:105A800011F0030F32D14DF8044D11F0040F51F80D
:105A9000043B0BD0A3F101329A4312F0803F04BFC4
:105AA0004CF8043B51F8043B16D100BF51F8044BAD
:105AB000A3F101329A4312F0803FA4F101320BD1DD
:105AC0004CF8043BA24312F0803F04BF51F8043B62
:105AD0004CF8044BEAD023460CF8013B13F0FF0FBF
:105AE0004FEA3323F8D15DF8044B704711F0010FF2
:105AF00006D011F8012B0CF8012B002A08BF7047C3
